:020000041000EA
:1000000000B5324B212058609868022188439860DF
:10001000D860186158612E4B002199600221596106
:100020000121F02299502B49196001219960352056
:1000300000F044F80222904214D00621196600F024
:1000400034F8196E01211966002018661A6600F04E
:100050002CF8196E196E196E052000F02FF8012189
:100060000842F9D1002199601B49196000215960AB
:100070001A491B48016001219960EB211966A021F2
:10008000196600F012F800219960164914480160C1
:100090000121996001BC002800D000471248134993
:1000A000086003C880F30888084703B5996A0420EC
:1000B0000142FBD001200142F8D103BD02B5186610
:1000C0001866FFF7F2FF186E186E02BD00000240BE
:1000D000000000180000070000035F00212200005C
:1000E000F4000018222000A00001001008ED00E03C
:1000F00000000000000000000000000074B24E7A12
:1001000000200420F7010010C3010010C5010010F9
:10011000C1010010C1010010C1010010C101001097
:10012000C1010010C1010010C1010010C701001081
:10013000C1010010C1010010C9010010CB01001065
:10014000CD010010CD010010CD010010CD01001037
:10015000CD010010CD010010CD010010CD01001027
:10016000CD010010CD010010CD010010CD01001017
:10017000CD010010CD010010CD010010CD01001007
:10018000CD010010CD010010CD010010CD010010F7
:10019000CD010010CD010010CD010010CD010010E7
:1001A000CD010010CD010010CD010010CD010010D7
:1001B000CD010010CD010010CD010010CD010010C7
:1001C00000BE00BE00BE00BE00BE00BE00F04BF888
:1001D000103800BEF2EB8871E035001008360010D0
:1001E0003402001090A31AE700202149086006C8D5
:1001F00081F3088810471F48006800282FD10DA4FC
:100200000ECC002902D000F012F8F9E71A491B4A77
:10021000002000E001C19142FCD1194988471949E9
:1002200088471949884700BEFDE701C901C29A42C3
:10023000FBD3704708360010C0000020840A00205D
:10024000CC3F00100000042000000420CC3F001030
:1002500000100420001004200000000070470B482C
:1002600001F012FD0047EFF30580C0B270470000B7
:1002700008ED00E0000000D0880A0020980E002061
:10028000C113001079030010E91400105756000044
:1002900006005250ABB36053683500100600525050
:1002A000861C030278350010060052505422A29D8D
:1002B0008835001005005250DE65F468CC3F001010
:1002C000F8B5C046054B0648033310B51B1A062B7C
:1002D00003D9044B002B00D0984710BD840A00209E
:1002E000840A0020000000000648074910B5091ADA
:1002F0008910CB0F5918491003D0044B002B00D0A4
:10030000984710BD840A0020840A002000000000E5
:1003100010B5074C2378002B09D1FFF7D3FF054B0D
:10032000002B02D0044800E000BF0123237010BD61
:10033000880B00200000000078340010094B10B535
:10034000002B03D00849094800E000BF08480368B3
:10035000002B02D1FFF7C8FF10BD064B002BF9D0D0
:100360009847F7E7000000008C0B0020783400105D
:10037000840A00200000000010B501F01FFF044CAB
:10038000200001F0F5FDFA20800000F0A7FBF7E760
:1003900078340010094A830094464022634410B523
:1003A0001C68C0006240C0241440802252011343E4
:1003B0001C60034B9C466044416010BD04C001407A
:1003C00000400140F8B5EFF3108772B60D4E336868
:1003D000002BFCD0BFF35F8F0725CB08C01801238B
:1003E0000D40AB401D000478254007D12343037026
:1003F000BFF35F8F356087F31088F8BD100001F000
:1004000075F8C0462C0100D0024B18688007C00F59
:100410007047C04600C006400021044B044ABFF3A9
:100420005F8F02C39342FAD17047C046000100D0EB
:10043000800100D0044A1078431CDBB2172B00D98E
:10044000102313707047C0467C010020F8B50400EB
:1004500006200D0001F0CCF903000020002B49D04C
:10046000294B80229C424DD0D203284B28491A6048
:10047000284B1A6010008B689843FBD1264B8021D3
:10048000E3185A425341254A5B004900062099521D
:1004900001F0AEF92900C00001F028FCC3092AD000
:1004A0001F4A93422AD87F221040013040089F0102
:1004B0001A0003003F18260080256262A362002311
:1004C0002C36AD0135432B60062001F091F939003F
:1004D000800001F00BFC6023E26A53406E221A4058
:1004E00080235B0133431A600E4B236310232B6080
:1004F0000D3BA364F8BD40270122DCE70A4F00232F
:100500000A4AD8E71204B0E70080034000E0004048
:1005100000C0004000F000400080FCBF900C0020B4
:10052000FEFF000001030000C0FF3F00FFFF0000CE
:1005300083680B4810B58446614462440901120186
:100540009A18591854684B6801209C4201D802D06F
:100550000020C0B210BD12680B689A42F9D8F7E7C4
:10056000FFFFFF0F0A4B1968EFF3108072B60A689D
:10057000002AFCD0BFF35F8F1B68BFF35F8F0022A0
:100580001A6080F3108840BF002000217047C046E9
:10059000740C0020F8B54E464546DE465746E0B599
:1005A0001F000CAB1D780DAB1B7881469B46036882
:1005B00016009846002D08D1987B002841D13CBCFC
:1005C00090469946A246AB46F8BD28006C006419D7
:1005D000033C384B00229C464B469B6860449C463B
:1005E00000010A9B604483600B9B06604760C36008
:1005F00043461B681B199A705A701A7043465B7BFE
:100600009A46002B3BD043462A00986851465B68C7
:10061000984743461A68002824D053465B00534449
:10062000033BD31814195246A2701A78002A00D03E
:1006300062701D705246434628005A73AA45BED1C7
:100640001FE0414644001B682418033C1B195A78DC
:100650008A73002A00D1CA73002205009A705A706A
:100660001A70B6E753465B005344033BD318141982
:100670009D702278002A00D05A705346237043465A
:100680005D734B463200187D3B0000F02BFB041ECF
:1006900007D05B46002B04D14B462900186800F0B8
:1006A00065FD0E9B002B02D01C70280087E72800F8
:1006B00085E7C046FFFFFF0F744B8200F0B5D458AA
:1006C0000023DE4657464E4645469B46E0B58DB074
:1006D0000B9000F07BFA6268EFF3108572B6136836
:1006E000002BFCD0BFF35F8F23689C465B7B994651
:1006F000002B00D181E0A268654B90464B441B0162
:10070000984443461E685F6832003B00121A8B41D2
:10071000002B00DC84E03B0032000B9800F0E2FA92
:100720000023002208920993002300279A46636859
:10073000BFF35F8F5A461A6085F310885346002B2B
:1007400064D00A9B390018024B461843D0476268B0
:1007500006900791EFF3108872B656464546136827
:10076000002BFCD0B246A846BFF35F8F0699079ACC
:10077000002A25DA2369002B28D0089D099E6D1ACE
:1007800096412A003300089D099E9E4200D971E0DF
:1007900000D173E059460491012103914946029129
:1007A0005146019700912000FFF7F4FE5B4623615C
:1007B0006368BFF35F8F5A461A6088F3108888E732
:1007C0001300194302D02369002B46D12368DA7B3A
:1007D000002A07D051008A1819688C46494662449D
:1007E000033A51704A46DA73E2684B469446013B3D
:1007F00063441A7801321A70D8E700230022089265
:100800000993002300279A46002090E7002800D093
:100810005FE70DB03CBC90469946A246AB46F0BDA2
:10082000002B02D1002A00D075E70021604600F0BD
:10083000F1FB43461A685B680892099343469B683C
:100840009A464346DF68E3684B44013B1B780A93B2
:100850001B0218432061002069E700F0B7F9069AEF
:10086000079B12184B41994204D800D092E790425E
:1008700000D88FE701225242D3178BE7954200D868
:1008800088E701225242D31784E7C046600C00205B
:10089000FFFFFF0F10B5124C6368002B04D00A2134
:1008A000104800F0ADFA10BD23000F4A1021206857
:1008B00000F092FB032000F07DF9032000F080FAA5
:1008C0000A49032000F0C8F9FFF7B4FD084B9C4625
:1008D000032360442375074B80006060DC60DEE723
:1008E00080010020740C002031050010B9060010B2
:1008F00040000034600C0020F0B557464E46454697
:10090000DE460400E0B50D0006267642F7173619DC
:100910006F4185B08F4255D852D000F057F9320060
:100920003B00121A8B41002B56DD674B9A465A68E2
:10093000EFF3108B72B61368002BFCD0BFF35F8F00
:1009400053461B6899469B7B9846002B49D15346DA
:100950005B68BFF35F8F00221A608BF310884346F9
:10096000002B11D0BC46B046009401950026654688
:10097000564F574A7B6AAB4211D3B96A414501D2FF
:10098000AB420CD0009C019D2000290000F054F9DE
:1009900005B03CBC90469946A246AB46F0BD1168F6
:1009A000EFF3108072B60B68002BFCD0BFF35F8FA3
:1009B0001368BFF35F8F1E6080F3108820BFD9E7F4
:1009C0008642AAD90026002700F000F932003B0039
:1009D000121A8B41002BA8DC002BD5D1002AA4D100
:1009E000D2E75B0043444A46033B9C4649461268B3
:1009F0000093624453788B73002B00D1CB73002398
:100A000051469370537013708968324A8C46424441
:100A1000314912016244166057609160D3600099B9
:100A20004A468C46126862449370537013704B466A
:100A30005B7B0393002B35D0190048464B4642465A
:100A400080685B689847002819D00398009984460D
:100A50004A46430063448C4669461268097B033B5F
:100A6000D318624491701978002900D05170424621
:100A70001A704B465873804500D068E715E04B4626
:100A800003981A688446009BD11843006344033BD3
:100A9000D31842469A700A78002A00D05A706B46E2
:100AA0001B7B0B704B4642465A7353463200187DEF
:100AB0003B0000F017F9002800D148E753464146B3
:100AC000186800F053FB42E7800100200040054019
:100AD000740C0020FFFFFF0F6505001070B50600C5
:100AE00000F074F8FA2204000D0092000023300098
:100AF000002101F067F9001969418D4205D90120F3
:100B00004042C117FFF7F8FE70BD8D42FAD1844212
:100B1000F5D8F7E7F8B5CE46474680B5EFF305833D
:100B20003F22134018001038EFF3108C72B61B49A7
:100B30000A68002AFCD0BFF35F8F01210F008740B5
:100B4000174D184A6F63147891462200C2409046B0
:100B50004646002231420BD0696A134D8846810017
:100B60004D59A84512D3114BBC43CA584B461C7073
:100B7000BFF35F8F0021094B19608CF31088002AA6
:100B800000D090470CBC90469946F8BD08499B00A0
:100B90008846434419681960EAE7C046280100D036
:100BA000004005408E0C0020780C0020D80B00205F
:100BB000D03F054010B50100024A0348FFF702FC90
:100BC00010BDC046903400108C0C0020044A516ABD
:100BD00000E01900906A536A9942FAD17047C04602
:100BE00000400540134A30B5546A00E01C00956A85
:100BF000536AA342FAD12A002300801859418C423B
:100C000011D80ED00C000B4A536AA342FCD307D173
:100C1000084A02E0516A994202D1916A8142F9D3AD
:100C200030BD8542EED9012401204042C117644203
:100C3000E9E7C04600400540064A536A9942FCD89D
:100C400007D1044B02E05A6A914202D19A6A824269
:100C5000F9D370470040054070B504000D00EFF374
:100C6000108672B61A4A1368002BFCD0BFF35F8F50
:100C7000002D1BD0200000F0D3FD164988420AD079
:100C8000200000F0D5FD0121200000F0B7FD012378
:100C9000A340114A1360114BA400E550BFF35F8FCE
:100CA00000220B4B1A6086F3108870BD0B4BA2001C
:100CB000D5500122A2400A4920000B7893430B70C3
:100CC000044900F0DFFD0021200000F097FDE5E77A
:100CD000280100D0150B001038600540D80B00200B
:100CE0008E0C0020F0B5D6464F4646462F4CC0B578
:100CF000656A00E00D00A66A616AA942FAD1AB42BA
:100D000049D9EFF3108972B6294C21680029FCD02B
:100D1000BFF35F8F0126274986408C460978264D10
:100D20000F0037438846F9B28A46614654460C7034
:100D30001E49041DA4004E636250840063510D6A75
:100D4000002435421AD04D6A00E025008F6A4C6AB3
:100D5000AC42FAD1AB4224D801D1BA4221D8D04515
:100D600021D0124B154A1E625E631F2318401E3BA2
:100D7000834013606346424601241A70BFF35F8FBD
:100D800000220B4B1A6089F3108820001CBC90468F
:100D90009946A246F0BDAB4201D1B242B1D801247E
:100DA000F3E70024EAE70124E8E7C04600400540F5
:100DB000280100D08E0C0020780C002080E200E09A
:100DC00010B5EFF3108472B60A490B68002BFCD003
:100DD000BFF35F8F01238340074A084813620278FC
:100DE0009A430270BFF35F8F00230B6084F3108877
:100DF00010BDC046280100D0004005408E0C0020E8
:100E0000024B9C46614489000160704740000034F9
:100E100010B50400FFF70EFB01002000FFF7F0FF04
:100E2000FF232371BFF35F8F10BDC04610B50400D0
:100E3000FFF700FB01002000FFF7E2FFFF23237113
:100E400000236371BFF35F8F10BDC046F8B54E46F7
:100E50004546DE465746E0B54C0064180368033C3F
:100E60001A190D00517806008946002906D128007C
:100E70003CBC90469946A246AB46F8BD4F004F4455
:100E8000033FD81941788846002141705170002DE8
:100E900012D073684A462900B06898473368002822
:100EA00073D0DF191A19BD701178002900D079703C
:100EB00049462700117000E04D464246002AD6D030
:100EC00054004444033C1A1951788946002911D131
:100ED000736842462900B06898473368002849D0B3
:100EE0001C19DF19A5703B78002B00D063704346B6
:100EF0003B70BCE74900494403398A46534459785A
:100F00008B4600215970517073684A464146B0685B
:100F100098473368002843D152461C199A184B460B
:100F2000A3701378002B00D0637043465446C84624
:100F300013705B46002BCBD059463000FFF786FF7D
:100F400081460028C4D002004146B06873689847C3
:100F5000326800282FD04B465B004B44033B1119ED
:100F6000D31842469A700A78002A00D05A704B462D
:100F70000B70ADE71C19DF194346BB702378002BBB
:100F800000D07B702570454671E749461C19DA1977
:100F9000A1701178002900D0617015704D468CE762
:100FA00041461A19534499701178002900D059709C
:100FB0004B461370BDE74B465B004B44033BD118D7
:100FC00014194A46A2700A78002A00D0627042467C
:100FD0001C000A70C8467BE710B583600023CCB2C2
:100FE00043730133047342608373C4730068012C3C
:100FF00007D90123421C0133DBB2137003329C4238
:10100000F9D8FF2319404B00591800234018033822
:10101000437010BDF0B54E4657464546DE46E0B536
:10102000477B03687C00E419033C1A19167883B0E7
:1010300005008946002E1ED1002911D0C07B002852
:1010400069D041000918591803394F70EF73002E09
:1010500006D07100891903398846002143449970EC
:101060000023380053706E7303B03CBC9046994621
:10107000A246AB46F0BD710089190339884659185C
:1010800048788246002807D149460029E5D0E87B08
:101090000028D6D1EF73DCE742005244033A94466D
:1010A000019263445A78934600225A704A706B68E2
:1010B00052463100A86898472B68002832D0414634
:1010C00001985A1819188E701078002825D15146A9
:1010D00011705A46002A23D059462800FFF7B6FE61
:1010E000824600281BD002006B683100A868984730
:1010F0002B68002825D04246991852465200524487
:10110000033A9A1896700878002800D0507052461A
:101110000A701A19B8E7EF73A2E74870D7E72B688F
:101120001A19B1E741465046019A59189A18887021
:101130001078002800D048701670019A56469046E4
:10114000C7E752465100514403395A184046934666
:101150005246181882705A461278002A00D04270FF
:101160005A46884616701A1956468DE7F0B5454618
:10117000DE4657464E46E0B50C0083B0050000221F
:1011800000293DD0477B0168BC426BD06600361910
:10119000033E88198378002B32D05A00D318033BC2
:1011A000CB181A78944202D143E0002A08D05300A9
:1011B0009B18033BCB185A789442F6D142785A7068
:1011C00000238370437003789846002B25D1EA7B77
:1011D000002A1DD053009B18CB18033B5C7043467C
:1011E000EC73002B00D171E05C0000234444033C0D
:1011F00009198B704370002F1ED1434601226B7377
:10120000100003B03CBC90469946A246AB46F0BDE8
:10121000B846EC7300234370EFE719002800FFF78E
:1012200015FE2968EA7B80466F7B8819002AD6D094
:10123000D0E742781A70C3E742463900A8686B6865
:1012400098472A68002824D07B00DB191419033B37
:10125000D318A7701A78002A00D062704246B846A8
:101260001A70CAE77E00F619033E8B19187880467B
:1012700000281BD1E87B002804D0420012188A18ED
:10128000033A5470EC7300225A70434601326B7378
:10129000B6E77B00DB19033B1419D31842469A705A
:1012A0002278002A00D05A702770A6E744004444F0
:1012B000E01E019008184478A246002C08D1EC7B6F
:1012C000002C76D1EF7300228270DCE7B846A1E7EC
:1012D00063005344033B994649444B784A7042703B
:1012E0009B4622006B684146A86898472B680028F7
:1012F0004BD049464046019C59181A1988701078FD
:10130000002850D15146A14611705A46002A20D0DB
:1013100059462800FFF79AFD041E19D002004146E5
:10132000A8686B68984700281ED04A4641462B683B
:10133000981862001219033A9A18917001780029DE
:1013400000D051700470E97B002905D19B19B9E7E1
:101350002B684A469818F6E74A0052189A18033A3A
:1013600057709B19EF73AEE74B4629686000001970
:101370000338CB1808189C700278002A00D05A70E5
:101380004346A04603708B1999E74A469818019A7C
:101390009C185246A2700278002A00D06270424621
:1013A000D0460270B1E7487051461170019A9146DB
:1013B000ABE7032262438A18033A577082E7C046BC
:1013C0002D4A2E4B70B51A602D4A2E4B2E491A60AD
:1013D00010008B689843FBD12C4E2D4B9E420AD2B5
:1013E000F5430024ED18AD080135A300F35801348E
:1013F0009847AC42F9D100F097F8264A214B1A6081
:10140000214A9368DB018033FBD14022224B234CDD
:10141000234D9A675A671A67DA66AC4208D2236886
:101420002000002B22D00834FFF700FDAC42F6D399
:101430001C4D1D4CC022A168280000F035FDA560A0
:10144000FEF7EAFF00F056FBFFF724FA174E184BA1
:101450009E420AD2F5430024ED18AD080135A300E1
:10146000F35801349847A542F9D170BD0834FFF70D
:10147000CFFCAC42D3D3DBE7BFCDFBFE00E00040A6
:10148000FE7F3C0000F0004000C00040700A0020D9
:10149000800A0020FFFFFF0100F00140680A0020E1
:1014A000700A00200000002000ED00E0800A00200B
:1014B000840A0020094A1368002B06D0084918182E
:1014C000884208D8106018007047064B0449181865
:1014D00013608842F6D901204042F5E7580C0020FD
:1014E00000000420980E002000BEFDE70FB400B5F8
:1014F000084883B000F03CFD049B002B07D005A9F1
:101500001800019100F0A0FB034800F031FD00BE7F
:10151000FDE7C046C0340010D034001010B50148BB
:10152000FFF7E4FFB434001030B50C2083B000F0B6
:1015300051FBFEF769FF00280ED0964B964A1A60C1
:101540005A609A60DA601A615A619A61DA611A62C5
:10155000924A5A6203B030BD914CA06700F042FB42
:101560000122904B1A60636C012BFCD103228E4B3D
:101570001A608B4A936B012BFCD1022405338B4AF2
:1015800001218B48009400F0D9FA0523894A009480
:101590000121894800F0D2FA884B5A68FF2A02D804
:1015A000802252005A6080227A4C7F4B21691201BE
:1015B000824D1A60002900D0E5E0E0217F4B022037
:1015C0001A681140802252012A431160196848406C
:1015D00003210140116004219A681142FCD080224D
:1015E000802192012A4309011160802252005A6031
:1015F000734B2361734B5968FF2900D8C1E0032264
:10160000684B70481A60012103009A681142FCD0AF
:10161000E0251A68154080225201024315601B68BC
:101620004B400321194011600221664A9368194218
:10163000FCD0802380219B01034309011960802194
:10164000614B490051606361604B5A68FF2A00D8C2
:10165000596080225E4BE16912015C4D1A600029DD
:1016600005D0606900F042FB01300138FDD1E02275
:1016700056490B681A4080235B012B431A60802374
:1016800080229B012B4312011A608022424B5200A0
:101690004A60E3614F4B5968FF2900D85A608022A5
:1016A0004D4B216A12014B4D1A60002905D060692B
:1016B00000F01CFB01300138FDD1E02245490B68E8
:1016C0001A4080235B012B431A60802380229B01F8
:1016D0002B4312011A6080235B004B602E4B3F4A64
:1016E00023623F4B5968914201D801325A608022EF
:1016F0003C4B616A12013A4D1A60002905D06069BD
:1017000000F0F4FA01300138FDD1E02234490B68D1
:101710001A4080235B012B431A60802380229B01A7
:101720002B4312011A608023DB024B601B4B636268
:101730002D4B5A68FF2A02D8802252005A6080221C
:101740002A4BA1691201284D1A60002905D0606951
:1017500000F0CCFA01300138FDD1E02222490B68BB
:101760001A4080235B012B431A60802380229B0157
:101770002B4312011A6080235B004B60124BA36164
:10178000E8E65A603BE7606900F0B0FA01300138E2
:10179000FDD112E7E80B0020006CDC021BB7000053
:1017A000008000403CB0004030B00040002F68593D
:1017B0000080024000389C1C00C002403080004085
:1017C000001BB7003C800040405973075480004024
:1017D00054B000406080004060B00040FFFF030054
:1017E0006C8000406CB000404880004048B0004031
:1017F000014B8000C0587047E80B00200123834054
:10180000002902D1034A13607047034A1360034A58
:101810001360F9E780E100E080E200E000E100E031
:10182000024B10309B688000C058704700ED00E00C
:1018300070B50D00EFF3108672B60F4A1368002BD7
:10184000FCD0BFF35F8F0D4B10309B6884001B5999
:101850000B4A934203D09D4201D0FFF75FFE074B36
:101860009B681D51BFF35F8FBFF35F8F0022024B58
:101870001A6086F3108870BD240100D000ED00E0EE
:10188000CD010010F0B54546DE4657464E46E0B560
:101890000D0083B0EFF3108B72B65C4A1368002B17
:1018A000FCD0BFF35F8F1022904680444246584BD5
:1018B00097009B68DE59574B99469E4206D0AE4230
:1018C00000D17DE0544C331B2F2B12D9504B9B6819
:1018D000DE51BFF35F8FBFF35F8F00224B4B1A6067
:1018E0008BF3108803B03CBC90469946A246AB46A9
:1018F000F0BD012383409A465246484B1B681A406C
:1019000000925246464B1A60BFF35F8FFEF7ABFC66
:101910000190002849D1012332009A434149130024
:101920001B1B5B415943090D93689D424DD0062016
:101930001056002805DA31E0062018561A00002853
:101940002CDB43001B189B00E31898688542F3D1F9
:101950000620185600283BDB420011188900651844
:101960008846A9689960E979D97106216956997103
:10197000A9797F2926D8AD88E11A6D052D15454432
:101980004919E0250905490D2D02294399801218AE
:10199000254B9200A4181A781870A271009B002B96
:1019A00008D152461E4B1A6090E78045B3D0FFF72E
:1019B000B5FDB0E752461D4B1A60184B1A6085E71B
:1019C0001E0083E7BD210902E0E713000022BFE704
:1019D000019800280AD1002A15D0FF3090711448D0
:1019E0009080114A107811709871D7E7114A124906
:1019F000D21A083A5002400D014399800F4952080B
:101A00000A43DA80CAE74E46EBE7C046240100D01D
:101A100000ED00E0CD010010A801002000E100E091
:101A200080E100E0AAAA00008D0C002080E200E026
:101A300000BDFFFFE201002000F0FFFF00F8FFFF04
:101A4000F8B5012504000543FEF70DFCEFF3108601
:101A500072B6214A1368002BFCD0BFF35F8F1F4A78
:101A60001F4B2100891A49414B431B0D1D49800022
:101A70008F685BB23F58BD4226D00621515699422D
:101A800026D012215156994224D01E2151569942F6
:101A900010D02A215156032099420CD0124A1178B5
:101AA0001370A171BFF35F8F00220B4B1A6086F396
:101AB0001088F8BD02204100091889005218FF2142
:101AC00091710A499180E9E78A6809491150E5E76F
:101AD0000020F0E70120EEE7240100D0A80100205B
:101AE000AAAA000000ED00E08D0C002000BDFFFF61
:101AF000CD010010084B094A1360094A1360094AD6
:101B00001360094A1360094A1360094A1360094ABD
:101B10001360094A136070478080808000E400E011
:101B200004E400E008E400E00CE400E010E400E07D
:101B300014E400E018E400E01CE400E0F8B5040060
:101B40000C2017001D000E0000F0D0F81C49414386
:101B5000380000F0CBF8069A2B04120313432268D6
:101B6000002A1CDB174A8021944226D04901164ADC
:101B7000164D1160164A11600F00AA689743FBD1F9
:101B8000C021221D8901114321222660A0600A6024
:101B90002268002AFCDAE36008230B60F8BD3F22CC
:101BA00021680A409642DDD1A2681205120D9042CA
:101BB000D8D1E268002BD5D1F0E78901D7E7C0463C
:101BC00040420F0000C0024000E0004000C0004062
:101BD00000F0004080239B001843014BD8627047FF
:101BE00000800540AA23064A1B0113602F230549E4
:101BF000D360054B19605368002BFCDA7047C04670
:101C00000040024000B0FA000060024010B5002819
:101C100000D110BD0B4B1C68A2689368013B936018
:101C2000002B04DB1368591C11601870F1E79169EF
:101C30008B4201DB0A28F5D10100200000F01EFED6
:101C4000E7E7C0462802002010B5094A84B01468AE
:101C5000002C09D0012200910300524203A905483B
:101C6000A047012004B010BD00F082F90020F9E780
:101C70005C0C00200D1C001001480421014B18478A
:101C8000F0010020A91C0010142310B501001888D1
:101C900004331B88984710BD162310B5010018881F
:101CA00002331B88984710BDF8B54746CE4680B52D
:101CB0000F1E19D014239946043304000025012671
:101CC00098464B461888434621681B88984701C4AC
:101CD000431E9841013540420640AF42F1D13000E9
:101CE0000CBC90469946F8BD0126F8E7114A936F5F
:101CF0009B0813D210665166002905D0FFE7FFE765
:101D0000FFE7516F106F704704B5002801D0002025
:101D1000C04301F099FB002104BDC046F0B5146E2C
:101D2000556E576F166FFFF7E5FF146655665767D8
:101D30001667F0BD000000D0132370B51C78012C8D
:101D400015D010DD0F48FFF7A7FF0F4D01008022CF
:101D5000280000F0A9F8022C06D00C48FFF794FFE9
:101D60000B4B186070BD084D0A4AAA64F5E7064D92
:101D7000084A29002B00803104C38B42FCD1AA649D
:101D8000EBE7C04653440000940C00204C330000A5
:101D9000700C0020991D001007B5604601880A0AE2
:101DA0000230DF2AFAD1C9B2820804D302884088FF
:101DB0000004104300E00068014A5050039007BD42
:101DC000940C002051434343C9188C46110C83B234
:101DD0004B4310B4040C614392B280B2504362434F
:101DE0001C041B0C001910BC59411304120CC01820
:101DF0005141614470470000132310B51C7813480B
:101E0000FFF74AFF012C0BD004DD010080221048AF
:101E100000F04AF80F48FFF737FF0F4B186010BD6E
:101E20000B4C01005422200000F03EF80B4B636580
:101E3000A365E36523666366A366E366236763675A
:101E4000A367E3672362E361E4E7C046534600000B
:101E5000940D00204C330000700C0020611E001017
:101E600007B5604601880A0A0230DF2AFAD1C9B2F2
:101E7000820804D3028840880004104300E0006810
:101E8000014A5050039007BD940D002001480421E1
:101E9000014B184700020020A91C0010014B1B68D1
:101EA0001847000000020020014B5B681847000043
:101EB00000020020F8B54746CE4680B5437C8046F8
:101EC0000E001700002B48D0002A2EDD274B0125DD
:101ED00000240020994604E02B00013401359F4284
:101EE00019DD002C3ED0631EF35C0D3B5942594175
:101EF000CBB2325D0A2AEFD1002BEDD1844226DC31
:101F0000434648461B6802219847013428002B00AD
:101F100001359F42E5DCB8420BDBF619013E337810
:101F20000D3B59425941434619740CBC90469946A1
:101F3000F8BD4346391A3018F6191B68013E984718
:101F400033780D3B5942594143461974EDE74346F6
:101F5000211A1B6830189847D2E703681100300037
:101F60009847E2E743461B7CC3E7C0469435001020
:101F7000F0B5DE4657464E464546E0B583B006000E
:101F800000F04AFCD0231B061C682D4B070001A95A
:101F900018009B4601F060FA8046002808D1019B9A
:101FA00064B29C4204D0584601F05EFA0123984680
:101FB000B9467B1C3ED0234B1C689A46002C32D07D
:101FC000214D02E0E468002C17D02368002BF9D0E3
:101FD0002B68002B01D09C42F4D120004A463100EE
:101FE000FFF768FF6B460A2220001A7101A901223F
:101FF000FFF760FFE468002CE7D14346002B15D1C2
:1020000053461C68002C06D06368002B00D098470C
:10201000E468002CF8D1380003B03CBC90469946E7
:10202000A246AB46F0BD4346002BF4D0584601F023
:1020300003FAE5E7300000F0EFFB8146BBE7C0465E
:10204000680A0020500C0020540C0020F0B54646D1
:10205000DE465746C0B5904682B00E00002830D10B
:10206000194B1A4D1A685B68194F9A46194B019221
:102070009B465B461C68002C05D115E0A34205D0A9
:10208000E468002C10D02B68002BF7D1A368002B3C
:10209000F6D04146300098470028F1DD02B01CBC64
:1020A00090469A46A346F0BD01200021FEF79AFD16
:1020B0007B6A9A45DDD8BA6A01998A4201D29A456B
:1020C000D7D001204042E9E788340010540C0020AA
:1020D00000400540500C0020F0B54646D6464F461D
:1020E000C0B5884682B01600012840D1D0231B0617
:1020F0001C68204B01A918009A4601F0ADF9071E93
:1021000007D1019B64B29C4203D0504601F0ACF968
:102110000137B146731C25D0174B1C68002C14D016
:10212000164D02E0E468002C0FD02368002BF9D094
:102130002B68002B01D09C42F4D120004A46414636
:10214000FFF7B8FEE468002CEFD1002F06D1300075
:1021500002B01CBC90469946A246F0BD504601F024
:102160006BF9F4E7404600F057FB8146D4E70126BF
:102170007642ECE7680A0020500C0020540C002046
:102180000D4B1A68002A12D0824203D109E098420E
:1021900007D01A00D368002BF9D1002900D0D060F5
:1021A00070470029FCD1C368D360C160F8E70029FB
:1021B000F6D01860F4E7C046500C002010B500F0CF
:1021C00045F810BDF0B5002915DD0E4B0D271A6836
:1021D0000D4B4118D3185C4263410C4C5B001E5FF1
:1021E00020240578B54207D093691C42FCD1013008
:1021F00015608842F5D1F0BD93691C42FCD117608F
:10220000F2E7C046880C00200080FCBF900C002044
:1022100030B5002914DD0C4B1A689369DB060FD426
:10222000050010240020013093691C42FCD1136882
:102230002B70814203D0936901351C42F3D030BD2D
:1022400003204042FBE7C046880C0020E12110B586
:102250000B4B0C481B780C4B49021B780B4B18603E
:10226000FEF7F4F802210020FEF794F80221012085
:10227000FEF790F801210648FFF782FF10BDC04627
:10228000003600100040034004360010880C002087
:1022900010020020F0B557464546DE464E46E0B5F2
:1022A0000D000B3583B00700162D00D89FE00723E3
:1022B0009D4300D5C4E0A94200D9C1E000F096FAE0
:1022C000F823FF339D4200D889E2680A00D1BBE0C1
:1022D000042800D964E138239846A809804439309D
:1022E000C100C94E71180839CC68A14219D0032326
:1022F00062689A431300521B0F2A00DDAAE0002AED
:1023000000DB88E003239C4608E062466368934351
:102310005A1B0F2A00DD9DE0002A7CDAE468A14206
:10232000F3D1320034690832944200D18BE10323A7
:10233000616899438946491B0F2900DD70E172618C
:102340003261002900DB87E0B04A4B46914500D955
:1023500032E1DB08FF3A9910FF3A8A40DB007168EE
:102360009B190A4399687260E360A1609C60130046
:10237000CC6001218210914099426FD80B4205D167
:1023800003229043490004300B42FBD003239846BC
:10239000C3009946B144CC4682466346DC68A445F6
:1023A00007D152E1002A00DB61E1E468A44500D1D5
:1023B0004BE14246636893435A1B0F2AF2DD01202A
:1023C0008046611905436560A068E5680836C56008
:1023D000A8604046F160B16010434860CE608E60F6
:1023E0003800E25000F004FA2000083021E0102903
:1023F00026D8380000F0FAF9102518230220824E62
:10240000F3181A005C68083A944200D129E10323CA
:1024100062689A431300E268A168CA609160012271
:10242000E318596838000A435A6000F0E1F92000C7
:10243000083003B03CBC90469946A246AB46F0BD7E
:102440000C2300203B60F4E780213F2340208900DB
:10245000984646E7404664E74B46E0E70323B46806
:1024600062689A439046AA4203D3531B0F2B00DDA8
:1024700088E023004344664A0193664B93469A469C
:1024800092681B68EB18013200D161E1624A944600
:1024900063441B0B1B0300930099380000F0AAF95A
:1024A00003008146013362D0019B834200D9F9E0E9
:1024B00053465B68009A9C46534662445A60019BAF
:1024C0001100834200D14FE15B469B68013300D18C
:1024D00066E14B46019A9B1A5918534659600723E7
:1024E0004A46134000D11EE1082189464B49D21AC1
:1024F0009144CB1A009A38004A441105090D5B1A21
:1025000019009B4600F076F9431C00D13CE14B4694
:10251000C01A01235844184353465B685B441900B2
:10252000534659604B46B3605860B44213D043469B
:102530000F2B00D8E2E04346072260680C3B934330
:10254000063A024005201A436260E218506090602B
:102550000F2B00D91CE15346DB6A994201D953463F
:10256000D96253461B6B994201D953461963032321
:10257000B46862689A43531B954200D9C1E00F2B9F
:1025800000DCBEE00122290013431143651961609C
:102590003800B5606B6000F02BF92000083048E788
:1025A000142873D9542800D9B2E06E239846280B1A
:1025B00080446F30C10094E65A0A042A6CD9142A68
:1025C00000D9C8E011005C325B31D20008235B42C5
:1025D0009C46B218944463469A68032398469445EF
:1025E00000D1A3E0434651689943894500D38DE06B
:1025F00092689445F6D16346DA6873686146E26092
:10260000A1609460CC60B4E658060020FF01000091
:10261000580A0020A40B00200F1000000810000032
:10262000012360191D43656070613061C260826082
:102630001A004B460A4342603800E15000F0D8F8D7
:1026400020000830F5E6736893E608239B46073BB5
:10265000DC449B46DA4443465246134200D09CE693
:1026600036E0DC680230A34200D15AE6CFE6012210
:10267000E318596838000A435A60E368A268D360D7
:102680009A6000F0B5F820000830D2E65B23984647
:1026900080445C30C10024E69A0911003932383197
:1026A000D20093E7B44200D061E753465B68009ADA
:1026B0009C465346624411005A6005E708235B427A
:1026C0009C46E1444B469B680138994500D084E024
:1026D00043460342F2D173688B43736049009942C9
:1026E00000D9BBE6002900D1B8E650460B4200D025
:1026F0004EE6490004300B42FBD049E601234A462E
:102700005360380000F074F8002092E6944672E7B7
:10271000AA235B00984211D8DD3B9846E80B804421
:102720007830C100DDE580235B01E3E68910023BE0
:102730008B4072681343736062465FE72A4B98428E
:102740001CD87C239846A80C80447D30C100C8E585
:1027500010330093A0E6542A26D84B461A0B1100DA
:102760006F326E31D20031E71B0500D0ACE601209C
:10277000009BB268434403435360ECE6FE217E2392
:102780007F2089009846ACE5002301209B46C3E6E4
:1027900021003800083100F07DFB53465968DAE625
:1027A0005B464A469A609AE6AA2149008A4206D8C0
:1027B0004B46DA0B110078327731D20006E70A492E
:1027C0008A4206D84B469A0C11007D327C31D200E9
:1027D000FCE6FE227E219200F8E673687EE72B007D
:1027E000E80808330BE6C046540500007047C046B1
:1027F0007047C046002370B5064C050008002360F2
:10280000FEF758FE431C00D070BD2368002BFBD0A0
:102810002B60F9E7940E002010B5830725D00378CC
:10282000002B24D00300032102E01A78002A1AD0DA
:1028300001330B42F9D119680E4A0F4C8A188A43AA
:10284000224206D1043319680A4A8A188A4322426E
:10285000F8D01A001B78002B03D001321178002920
:10286000FBD1101A10BD181AFCE70300E3E70020A3
:10287000F8E7C046FFFEFEFE80808080F8B50600C7
:102880000D001400002802D0836B002B4ED0A369EA
:10289000A3600C23E05E81B20B073CD52369002BBB
:1028A00039D0FF22EFB2154080229201114215D09B
:1028B00022686169D31A8B421BDA0133A16801399E
:1028C000A160511C2160177062699A421AD0A389D5
:1028D000DB0701D50A2D15D02800F8BD0243616E33
:1028E000A281144A0A40626661692268D31A8B4247
:1028F000E3DB2100300000F03DF9002808D1226818
:102900000123DBE72100300000F034F90028E3D098
:1029100001256D42E0E72100300000F019F80028A1
:10292000F6D10C23E05E236981B2BAE700F03AFAEF
:10293000ADE7C046FFDFFFFF10B5044B0A001B6880
:1029400001001800FFF79AFF10BDC04628020020C2
:10295000334B70B5050018680C00002802D0836B5B
:10296000002B3CD00C23E25E93B219070DD52169F0
:10297000002915D0DA0721D50023A3606369002060
:102980005B42A361002921D070BDD9063FD55B070A
:1029900028D4216908231343A3819BB20029E9D1DC
:1029A000A0228020920080001A408242E2D02100C2
:1029B000280000F0C5FBA3892169DBE700229B0703
:1029C00000D46269A26000200029DDD10C22A35E40
:1029D0001A06D9D540221343A3810138D4E700F069
:1029E000E1F9BFE7216B00290AD023004033994267
:1029F00004D0280000F04EFA0C23E25E002323638B
:102A000024239A430023216963602160C2E70923DC
:102A10002B60402301201A43A2814042B4E7C04604
:102A200028020020F0B5C64600B50C23CA5E8046D9
:102A300093B20C00190740D480231B011343626832
:102A4000A381002A00DC70E0A66A002E31D0424645
:102A50004146156800229BB20A60DA0400D469E09E
:102A6000226D5B0706D56368D21A236B002B01D059
:102A7000E36BD21A0023E1694046B047431C3DD0C6
:102A8000A3893A4A13400022626022691BB2A381E3
:102A90002260DB0447D44346216B1D60002908D027
:102AA00023004033994202D0404600F0F3F900235E
:102AB0002363002004BC9046F0BD2669002EF8D0A8
:102AC00022682660951B00229B0700D16269A260E4
:102AD000002D04DCEDE736182D1A002DE9DD2B0062
:102AE0003200E1694046676AB8470028F3DC4022BB
:102AF0000120A38940421343A381DBE743461968C1
:102B00001D29F4D81A4B0122CB409A43EFD1A38957
:102B1000164E6260334022691BB2A3812260DB043F
:102B2000B9D50029B7D12065B5E7E26B002A00DDF1
:102B30008AE7BEE700220123E1694046B047020070
:102B4000431C02D0A389A66A8BE743461B68002B6F
:102B5000F8D01D2B01D0162B03D1434600201D6059
:102B6000A8E74021A3890B43A381A3E7FFF7FFFF59
:102B70000100402070B504000D00002802D0836BD6
:102B8000002B09D00C22AB5E0020002B03D02900C3
:102B90002000FFF747FF70BD00F004F9F2E7C046E0
:102BA00010B5011E04D0054B1868FFF7E3FF10BDF8
:102BB000034B0449186800F06DFAF8E7280200207A
:102BC000D8350010752B00100020704710B5024951
:102BD00000F060FA10BDC046B5320010F8B5DE4610
:102BE00057464E464546344BE0B5C363B8230024F0
:102BF00003229B00C45004334568C2500833C218F6
:102C0000043BC2500600042328002C606C60AC60BA
:102C1000AB816C66EC812C616C61AC610822002197
:102C20005C30FFF73BF9254B254F9A462B62254B2D
:102C3000EF6299466B62244BED61AB62B5689846D2
:102C400009232800AB81083B2C606C60AC606C668B
:102C5000EB812C616C61AC61082200215C309B46E9
:102C6000FFF71CF953462B624B466B624346EF62FB
:102C7000AB62ED61F56812232800AB81103BEB815C
:102C80002C606C60AC606C662C616C61AC6108227D
:102C900000215C30FFF702F953462B624B466B6212
:102CA0004346AB625B46EF62ED61B3633CBC90466A
:102CB0009946A246AB46F8BDCD2B0010C931001095
:102CC0005D320010F53100103132001000207047E5
:102CD00070B568244A1E54430E0021007431FFF77A
:102CE000D9FA051E09D000232200036046600C308B
:102CF000A86068320021FFF7D1F8280070BDC046F7
:102D0000214B70B51D680600AB6B002B2DD0B8238E
:102D10009B009C4665446B68AC68013B03D51FE093
:102D20006834013B1CD30C21625E002AF8D10123D8
:102D3000002520005B42E3810233A38165662560A4
:102D4000A560656025616561A561082200215C3090
:102D5000FFF7A4F8256365636564A564200070BD72
:102D60002868002805D00500D5E72800FFF736FFC2
:102D7000CDE704213000FFF7ABFF28600028F2D137
:102D80000C2300243360E9E7D835001010B5034B5D
:102D90000349186800F07EF910BDC046D835001010
:102DA000B5320010836B10B5002B01D1FFF716FF71
:102DB00010BDC0467047C0467047C0467047C04609
:102DC0007047C04610B5034B0349186800F040F93E
:102DD00010BDC04628020020CD2C001010B5034BBA
:102DE0000349186800F034F910BDC04628020020DD
:102DF000C92B0010F8B50C000600FFF7F7FC204FB8
:102E0000BB685D6803239D431E4B2C1B9C4664449A
:102E1000240B1D4B013C24039C4207DD00213000A4
:102E2000FFF7E8FCBB685B19984204D03000FFF75D
:102E3000DFFC0020F8BD61423000FFF7DBFC431CE3
:102E40000DD00122BB682D1B15435D600F4B300078
:102E50001A68141B1C60FFF7CBFC0120EAE7002175
:102E60003000FFF7C7FCBA68831A0F2BDEDD084974
:102E70000968401A0549086001210B435360D5E7F2
:102E800058060020EF0F0000FF0F0000A80B0020E5
:102E9000600A0020F8B504000D1E3CD0FFF7A6FC28
:102EA0002900083948680123050003269D434A1973
:102EB0009C46614F5368B343BE68B24256D06646E3
:102EC000536006420AD13E0008680836091A2D18D8
:102ED0008868B04265D0CE68C660B0600120D61860
:102EE0007668064233D0554B284348604D519D4289
:102EF00012D8ED08FF3BAA10FF3B93407A68ED0023
:102F000013437B60EF19BB68CF608B60B960D960F9
:102F10002000FFF76DFCF8BD680A042850D8A80906
:102F2000020039303832C000381808388368032668
:102F300098424CD05A68B243954230D29B6898422E
:102F4000F8D1C368CB6088609960C160E0E7ED1894
:102F50003B4E9368B34242D0D2682843DA60936014
:102F6000364B48604D519D42D6D8C2E76246EB18B9
:102F7000024206D10A68891A88689B18CA68C2602A
:102F8000906001221A434A602E4AB9601268934247
:102F9000BED32D4B20001968FFF72CFFB8E71800AF
:102FA000CFE76646D018406830423FD190685D193F
:102FB000D368C360986063462B434B604D51A7E7CD
:102FC000142814D802005C305B32C000ACE7012347
:102FD000921093407A6813437B600300B2E7284362
:102FE000D9609960CB608B6048604D5190E7542860
:102FF00005D8280B02006F306E32C00094E7AA2279
:103000005200904205D8E80B020078307732C000B9
:103010008AE70E4A904205D8A80C02007D307C3227
:10302000C00081E7FE207E2280007DE763462B43BF
:103030004B6015606CE7C04658060020FF01000099
:1030400060060020640A0020A40B00205405000044
:10305000B823F0B5C6469B00C71800B588460026C1
:10306000002F13D07B68BC685D1E0CD4A389012B94
:1030700006D90E22A35E013302D02000C0470643CA
:103080006834013DF2D23F68002FEBD1300004BC20
:103090009046F0BDF8B54746CE4680B5B827804685
:1030A000BF00474489460026002F14D07B68BC68C7
:1030B0005D1E0DD4A389012B07D90E22A35E013317
:1030C00003D021004046C84706436834013DF1D291
:1030D0003F68002FEAD130000CBC90469946F8BDFD
:1030E00070B50C001E000E23C95E90B015000029BB
:1030F00015DB01AA00F02EF9002810DBF022029B5C
:10310000120213400D4A8020944663445A425341B0
:1031100033608023DB002B60000110B070BD002302
:103120003360A3891B0603D5402300202B60F4E7FE
:103130008023DB002B600020EFE7C04600E0FFFFAC
:1031400070B58B8982B005000C009B0707D5230062
:103150004333236023610123636102B070BD01AB7F
:103160006A46FFF7BDFF009906002800FFF792F8B6
:1031700000281CD08022134BEB63A38920601343EB
:10318000009A1BB26261019AA3812061002A02D1D8
:103190003343A381E1E70E23E15E280000F0EEF85F
:1031A00000280CD00122A38913431BB2F0E70C22A4
:1031B000A35E9A05D1D402221343A381C7E70C2250
:1031C000A35EE5E7CD2B001070B50C000E25495F1E
:1031D00000F0FAF8002803DB236D1B18236570BD8F
:1031E000A389024A1340A381F9E7C046FFEFFFFF1E
:1031F00000207047F8B516001F000C228B5E0500FA
:103200000C00DA0507D50E23C95E0022022300F068
:10321000C7F80C22A35E054A28001340A3813200A0
:103220000E23E15E3B0000F01FF8F8BDFFEFFFFF4B
:1032300070B50C000E25495F00F0B2F8431C06D0B3
:103240008023A2895B011343A381206570BDA389FC
:10325000014A1340A381F9E7FFEFFFFF10B50E23EA
:10326000C95E00F015F810BD70B50500080011002A
:103270000022064C22601A00FEF72EFF431C00D0ED
:1032800070BD2368002BFBD02B60F9E7940E002063
:10329000002370B5064C05000800236000F0A8F874
:1032A000431C00D070BD2368002BFBD02B60F9E7D6
:1032B000940E002070B505000C1E08D0002802D026
:1032C000836B002B31D00C22A35E002B02D1002691
:1032D000300070BD21002800FFF7A4FBE36A060060
:1032E000002B04D0E16928009847002820DBA3893F
:1032F0001B0620D4216B002908D0230040339942BB
:1033000002D02800FFF7C6FD00232363616C00296B
:1033100004D02800FFF7BEFD00236364FFF74AFDD9
:103320000023A381FFF748FDD2E7FFF73BFDCAE783
:1033300001267642DBE721692800FFF7ABFDD9E7DC
:1033400010B5034B01001868FFF7B4FF10BDC0466D
:1033500028020020002370B5074C0500080011006A
:10336000236000F04DF8431C00D070BD2368002B93
:10337000FBD02B60F9E7C046940E0020002370B507
:10338000064C05000800236000F042F8431C00D002
:1033900070BD2368002BFBD02B60F9E7940E002052
:1033A00070B50500080011000022064C22601A00CA
:1033B00000F036F8431C00D070BD2368002BFBD012
:1033C0002B60F9E7940E002070B50500080011008D
:1033D0000022064C22601A00FEF738FE431C00D083
:1033E00070BD2368002BFBD02B60F9E7940E002002
:1033F00058220120014B40421A607047940E002071
:1034000058220120014B40421A607047940E002060
:103410005822024B00201A607047C046940E0020CC
:1034200058220120014B40421A607047940E002040
:10343000F8B5C0460000000001B40248844601BC53
:10344000604700BF5101002001B40248844601BC1E
:10345000604700BF7901002001B40248844601BCE6
:10346000604700BF0901002001B40248844601BC46
:08347000604700BFC10000200D
:1034780048656C6C6F2C20776F726C6421000000BB
:10348800FFFFFFFFFFFFFF7F48617264776172658E
:1034980020616C61726D20256420616C72656164C5
:1034A8007920636C61696D6564000000486172642D
:1034B80020617373657274000A2A2A2A2050414ECB
:1034C8004943202A2A2A0A000A000000060052500E
:1034D800BBFF3CB670350010060052509A235618B0
:1034E8001C35001006005250E182887F0C35001010
:1034F80006005250D3F075420435001052656C65D1
:1035080061736500626F6F74325F7732357130387E
:103518003000000068747470733A2F2F67697468FC
:1035280075622E636F6D2F72617370626572727946
:1035380070692F7069636F2D6578616D706C657344
:103548002F747265652F484541442F68656C6C6F10
:103558005F776F726C642F73657269616C0000002D
:10356800312E332E300000007069636F00000000B8
:1035780068656C6C6F5F73657269616C0000000050
:103588005365702031382032303232000D0A000085
:103598000600525053B4F4A1C4350010080052502C
:1035A800920000005541525420737464696E000003
:1035B80055415254207374646F75740055415254C8
:1035C80020737464696E202F207374646F7574009F
:0835D800300200204300000056
:1035E000B4020010A80200109C020010D434001095
:1035F00090020010E0340010EC340010F834001099
:0836000098350010A4350010FC
:10360800D02330B500251B065D57002406E003686B
:10361800BFF35F8F1C6081F3108820BF0268EFF34F
:10362800108172B61368002BFCD0BFF35F8F03794B
:103638007F2BECD905710368BFF35F8F00221A60F6
:1036480081F3108830BDC046030010B50068EFF361
:10365800108472B60268002AFCD0BFF35F8F042280
:103668009A56002A0BDB00290FD000200A601B683D
:10367800BFF35F8F00221A6084F3108810BDD02238
:103688001206126801201A71F1E70020EFE7C04620
:103698000268EFF3108172B61368002BFCD0BFF3F9
:1036A8005F8FFF2303710368BFF35F8F00221A60E7
:1036B80081F3108840BF70477047C0461000000073
:1036C8009801002000000000880A0020100C00204B
:1036D8000000000000000000200C00200000000096
:1036E80000000000100000000000000000000100C1
:1036F80000000000000000000000020000000000C0
:1037080000000000000003000000000000000000AE
:103718000000FF000000000000B5486801318E4637
:103728000047704609380149884700BD411A001012
:10373800503300004C330000543300005233000073
:103748004D5300004D430000533400004334000043
:10375800C521001000000000112200100000000028
:1037680000010000000000003002002000000000FE
:10377800000000001C05002084050020EC05002046
:103788000000000000000000000000000000000031
:103798000000000000000000000000000000000021
:1037A80000000000DC3500100000000000000000F0
:1037B8000000000000000000000000000000000001
:1037C80000000000000000000000000000000000F1
:1037D80000000000000000000000000000000000E1
:1037E80000000000000000000000000000000000D1
:1037F80000000000000000000000000000000000C1
:1038080000000000000000000000000000000000B0
:10381800000000000000000001000000000000009F
:103828000E33CDAB34126DE6ECDE05000B00000064
:103838000000000000000000000000000000000080
:103848000000000000000000000000000000000070
:103858000000000000000000000000000000000060
:103868000000000000000000000000000000000050
:103BA8005806002058060020600600206006002005
:103BB80068060020680600207006002070060020B5
:103BC8007806002078060020800600208006002065
:103BD8008806002088060020900600209006002015
:103BE8009806002098060020A0060020A0060020C5
:103BF800A8060020A8060020B0060020B006002075
:103C0800B8060020B8060020C0060020C006002024
:103C1800C8060020C8060020D0060020D0060020D4
:103C2800D8060020D8060020E0060020E006002084
:103C3800E8060020E8060020F0060020F006002034
:103C4800F8060020F80600200007002000070020E2
:103C58000807002008070020100700201007002090
:103C68001807002018070020200700202007002040
:103C780028070020280700203007002030070020F0
:103C880038070020380700204007002040070020A0
:103C98004807002048070020500700205007002050
:103CA8005807002058070020600700206007002000
:103CB80068070020680700207007002070070020B0
:103CC8007807002078070020800700208007002060
:103CD8008807002088070020900700209007002010
:103CE8009807002098070020A0070020A0070020C0
:103CF800A8070020A8070020B0070020B007002070
:103D0800B8070020B8070020C0070020C00700201F
:103D1800C8070020C8070020D0070020D0070020CF
:103D2800D8070020D8070020E0070020E00700207F
:103D3800E8070020E8070020F0070020F00700202F
:103D4800F8070020F80700200008002000080020DD
:103D5800080800200808002010080020100800208B
:103D6800180800201808002020080020200800203B
:103D780028080020280800203008002030080020EB
:103D8800380800203808002040080020400800209B
:103D9800480800204808002050080020500800204B
:103DA80058080020580800206008002060080020FB
:103DB80068080020680800207008002070080020AB
:103DC800780800207808002080080020800800205B
:103DD800880800208808002090080020900800200B
:103DE8009808002098080020A0080020A0080020BB
:103DF800A8080020A8080020B0080020B00800206B
:103E0800B8080020B8080020C0080020C00800201A
:103E1800C8080020C8080020D0080020D0080020CA
:103E2800D8080020D8080020E0080020E00800207A
:103E3800E8080020E8080020F0080020F00800202A
:103E4800F8080020F80800200009002000090020D8
:103E58000809002008090020100900201009002086
:103E68001809002018090020200900202009002036
:103E780028090020280900203009002030090020E6
:103E88003809002038090020400900204009002096
:103E98004809002048090020500900205009002046
:103EA80058090020580900206009002060090020F6
:103EB80068090020680900207009002070090020A6
:103EC8007809002078090020800900208009002056
:103ED8008809002088090020900900209009002006
:103EE8009809002098090020A0090020A0090020B6
:103EF800A8090020A8090020B0090020B009002066
:103F0800B8090020B8090020C0090020C009002015
:103F1800C8090020C8090020D0090020D0090020C5
:103F2800D8090020D8090020E0090020E009002075
:103F3800E8090020E8090020F0090020F009002025
:103F4800F8090020F8090020000A0020000A0020D3
:103F5800080A0020080A0020100A0020100A002081
:103F6800180A0020180A0020200A0020200A002031
:103F7800280A0020280A0020300A0020300A0020E1
:103F8800380A0020380A0020400A0020400A002091
:103F9800480A0020480A0020500A0020500A002041
:103FA800FFFFFFFF0000020000000000000000000B
:103FB8008D1E0010791C0010391D0010F91D00100D
:043FC8003D030010A5
:04000005100001E9FD
:00000001FF
