:020000041000EA
:1000000000B5324B212058609868022188439860DF
:10001000D860186158612E4B002199600221596106
:100020000121F02299502B49196001219960352056
:1000300000F044F80222904214D00621196600F024
:1000400034F8196E01211966002018661A6600F04E
:100050002CF8196E196E196E052000F02FF8012189
:100060000842F9D1002199601B49196000215960AB
:100070001A491B48016001219960EB211966A021F2
:10008000196600F012F800219960164914480160C1
:100090000121996001BC002800D000471248134993
:1000A000086003C880F30888084703B5996A0420EC
:1000B0000142FBD001200142F8D103BD02B5186610
:1000C0001866FFF7F2FF186E186E02BD00000240BE
:1000D000000000180000070000035F00212200005C
:1000E000F4000018222000A00001001008ED00E03C
:1000F00000000000000000000000000074B24E7A12
:1001000000200420F7010010C3010010C5010010F9
:10011000C1010010C1010010C1010010C101001097
:10012000C1010010C1010010C1010010C701001081
:10013000C1010010C1010010C9010010CB01001065
:10014000CD010010CD010010CD010010CD01001037
:10015000CD010010CD010010CD010010CD01001027
:10016000CD010010CD010010CD010010CD01001017
:10017000CD010010CD010010CD010010CD01001007
:10018000CD010010CD010010CD010010CD010010F7
:10019000CD010010CD010010CD010010CD010010E7
:1001A000CD010010CD010010CD010010CD010010D7
:1001B000CD010010CD010010CD010010CD010010C7
:1001C00000BE00BE00BE00BE00BE00BE00F04BF888
:1001D000103800BEF2EB8871BC650010E0650010BD
:1001E0003402001090A31AE700202149086006C8D5
:1001F00081F3088810471F48006800282FD10DA4FC
:100200000ECC002902D000F012F8F9E71A491B4A77
:10021000002000E001C19142FCD1194988471949E9
:1002200088471949884700BEFDE701C901C29A42C3
:10023000FBD37047E0650010C0000020B00C002028
:10024000D07100100000042000000420D0710010C4
:1002500000100420001004200000000070470B482C
:1002600001F0F2FE0047EFF30580C0B270470000D6
:1002700008ED00E0000000D0B00C00206C1A002057
:10028000E9160010790300101118001057560000ED
:1002900006005250ABB360539C63001006005250EE
:1002A000861C0302AC630010060052505422A29D2B
:1002B000B863001005005250DE65F468D07100107C
:1002C000F8B5C046054B0648033310B51B1A062B7C
:1002D00003D9044B002B00D0984710BDB00C002070
:1002E000B00C0020000000000648074910B5091AAC
:1002F0008910CB0F5918491003D0044B002B00D0A4
:10030000984710BDB00C0020B00C00200000000089
:1003100010B5074C2378002B09D1FFF7D3FF054B0D
:10032000002B02D0044800E000BF0123237010BD61
:10033000B80D00200000000090620010094B10B5BD
:10034000002B03D00849094800E000BF08480368B3
:10035000002B02D1FFF7C8FF10BD064B002BF9D0D0
:100360009847F7E700000000BC0D002090620010E5
:10037000B00C00200000000010B502F0FFF8044CA3
:10038000200001F0D5FFFA20800000F047FCF7E7DD
:1003900090620010F8B5EFF3108772B60D4E336817
:1003A000002BFCD0BFF35F8F0725CB08C0180123BB
:1003B0000D40AB401D000478254007D12343037056
:1003C000BFF35F8F356087F31088F8BD100001F030
:1003D00021FAC0462C0100D0F8B5CE4647468C46DF
:1003E00080B5EFF3108872B61D4D2C68002CFCD040
:1003F000BFF35F8F9A4219D80721012511408D4024
:10040000D4080419267835421FD0072189460639B9
:1004100009E04D460F001540AF40D4080419267876
:100420003D00374211D001329342F2D201204042C6
:10043000BFF35F8F00220A4B1A6088F310880028F0
:1004400007DB0CBC90469946F8BD3543257010007B
:10045000EEE76346002BF4D0089801F0DBF9C046C4
:100460002C0100D0024B18688007C00F7047C046AF
:1004700000C006400021044B044ABFF35F8F02C353
:100480009342FAD17047C046000100D0800100D0ED
:10049000044A1078431CDBB2172B00D910231370C9
:1004A0007047C0467803002000B5054B83B00100BB
:1004B000009318221F230348FFF78EFF03B000BDEF
:1004C000A0620010AC12002083680B4810B584466F
:1004D00061446244090112019A18591854684B6822
:1004E00001209C4201D802D00020C0B210BD126889
:1004F0000B689A42F9D8F7E7FFFFFF0F0A4B19681C
:10050000EFF3108072B60A68002AFCD0BFF35F8F49
:100510001B68BFF35F8F00221A6080F3108840BF12
:10052000002000217047C04674170020F8B54E46E1
:100530004546DE465746E0B51F000CAB1D780DABB7
:100540001B7881469B46036816009846002D08D10B
:10055000987B002841D13CBC90469946A246AB46C8
:10056000F8BD28006C006419033C384B00229C46FF
:100570004B469B6860449C4600010A9B6044836034
:100580000B9B06604760C36043461B681B199A704B
:100590005A701A7043465B7B9A46002B3BD0434609
:1005A0002A00986851465B68984743461A680028B5
:1005B00024D053465B005344033BD31814195246CE
:1005C000A2701A78002A00D062701D70524643460D
:1005D00028005A73AA45BED11FE0414644001B685B
:1005E0002418033C1B195A788A73002A00D1CA7355
:1005F000002205009A705A701A70B6E753465B00E5
:100600005344033BD31814199D702278002A00D05C
:100610005A705346237043465D734B463200187D33
:100620003B0000F0E3FC041E07D05B46002B04D126
:100630004B462900186800F02DFF0E9B002B02D0BE
:100640001C70280087E7280085E7C046FFFFFF0FE2
:10065000744B8200F0B5D4580023DE4657464E4610
:1006600045469B46E0B58DB00B9000F033FC6268C8
:10067000EFF3108572B61368002BFCD0BFF35F8FC9
:1006800023689C465B7B9946002B00D181E0A268E1
:10069000654B90464B441B01984443461E685F6877
:1006A00032003B00121A8B41002B00DC84E03B003F
:1006B00032000B9800F09AFC002300220892099364
:1006C000002300279A466368BFF35F8F5A461A607B
:1006D00085F310885346002B64D00A9B390018021A
:1006E0004B461843D047626806900791EFF3108895
:1006F00072B6564645461368002BFCD0B246A84653
:10070000BFF35F8F0699079A002A25DA2369002B29
:1007100028D0089D099E6D1A96412A003300089D35
:10072000099E9E4200D971E000D173E059460491C0
:100730000121039149460291514601970091200001
:10074000FFF7F4FE5B4623616368BFF35F8F5A4691
:100750001A6088F3108888E71300194302D02369D0
:10076000002B46D12368DA7B002A07D051008A1873
:1007700019688C4649466244033A51704A46DA7316
:10078000E2684B469446013B63441A7801321A7082
:10079000D8E70023002208920993002300279A46F5
:1007A000002090E7002800D05FE70DB03CBC9046E9
:1007B0009946A246AB46F0BD002B02D1002A00D0DC
:1007C00075E70021604600F0B9FD43461A685B6892
:1007D0000892099343469B689A464346DF68E3685C
:1007E0004B44013B1B780A931B02184320610020F5
:1007F00069E700F06FFB069A079B12184B4199427C
:1008000004D800D092E7904200D88FE701225242EC
:10081000D3178BE7954200D888E701225242D317BD
:1008200084E7C04658170020FFFFFF0F10B5124C99
:100830006368002B04D00A21104800F065FC10BD4D
:1008400023000F4A1021206800F05AFD032000F019
:1008500035FB032000F038FC0A49032000F080FB40
:10086000FFF716FE084B9C46032360442375074B95
:1008700080006060DC60DEE77C03002074170020ED
:10088000C904001051060010400000345817002021
:10089000004870477C030020F0B55746DE464546C9
:1008A0004E46E0B585B00092019310AB1B7807006F
:1008B0009B4600239A4698467A68EFF3108972B6F1
:1008C0001368002BFCD0BFF35F8F3E68B47B002C15
:1008D00000D173E065002D193368033D5B195A7828
:1008E000B273002A00D1F27342469A705A701A709D
:1008F000BA68504B94460099019AE3181B0163446F
:1009000019605A600E9A9A600F9ADA60424633680C
:100910005B199A705A701A70737B0393002B00D185
:1009200076E0190073682200B0689C46E0473268A0
:1009300000285ED003985519844643006344033B66
:10094000D318A8701A78002A00D06FE01C7070735A
:1009500084425ED0FB681B19013B18787B68BFF3AB
:100960005F8F42461A6089F310885346002B08D1E6
:100970000002204305B03CBC90469946A246AB46D7
:10098000F0BD5B46002B53D00E9B0F99002098477B
:10099000030004000D000B434AD0002917DA009829
:1009A000019902000B00121BAB4199421AD801D1E8
:1009B000904217D800920193DA467DE77B68BFF337
:1009C0005F8F1C6089F3108801204042D2E700F05D
:1009D00081FA24184D4100940195A94202D8EBD127
:1009E000A042E9D901235B42DC17DA460093019467
:1009F00062E7039955198C464B006344033BD318B7
:100A00009C702A78002A00D05A706B461B7B2B7092
:100A10007473387D009A019B00F0E8FA8246002842
:100A200098D02100386800F035FD93E76A708DE7B3
:100A300000209FE7FFFFFF0FF0B557464E464546A3
:100A4000DE460400E0B50D0006267642F71736199B
:100A50006F4185B08F4255D852D000F03BFA32003A
:100A60003B00121A8B41002B56DD674B9A465A68A1
:100A7000EFF3108B72B61368002BFCD0BFF35F8FBF
:100A800053461B6899469B7B9846002B49D1534699
:100A90005B68BFF35F8F00221A608BF310884346B8
:100AA000002B11D0BC46B046009401950026654647
:100AB000564F574A7B6AAB4211D3B96A414501D2BE
:100AC000AB420CD0009C019D2000290000F038FAB8
:100AD00005B03CBC90469946A246AB46F0BD1168B5
:100AE000EFF3108072B60B68002BFCD0BFF35F8F62
:100AF0001368BFF35F8F1E6080F3108820BFD9E7B3
:100B00008642AAD90026002700F0E4F932003B0013
:100B1000121A8B41002BA8DC002BD5D1002AA4D1BE
:100B2000D2E75B0043444A46033B9C464946126871
:100B30000093624453788B73002B00D1CB73002356
:100B400051469370537013708968324A8C46424400
:100B5000314912016244166057609160D360009978
:100B60004A468C46126862449370537013704B4629
:100B70005B7B0393002B35D0190048464B46424619
:100B800080685B689847002819D0039800998446CC
:100B90004A46430063448C4669461268097B033B1E
:100BA000D318624491701978002900D051704246E0
:100BB0001A704B465873804500D068E715E04B46E5
:100BC00003981A688446009BD11843006344033B92
:100BD000D31842469A700A78002A00D05A706B46A1
:100BE0001B7B0B704B4642465A7353463200187DAE
:100BF0003B0000F0FBF9002800D148E7534641468E
:100C0000186800F047FC42E77C03002000400540E4
:100C100074170020FFFFFF0FFD04001070B50600E1
:100C200000F058F9FA2204000D0092000023300071
:100C3000002101F0A7FA001969418D4205D9012070
:100C40004042C117FFF7F8FE70BD8D42FAD18442D1
:100C5000F5D8F7E7F0B54E464546DE465746E0B5CF
:100C60006A4C83B0814688466268EFF3108A72B698
:100C70001368002BFCD0BFF35F8F2668B57B002D77
:100C800046D06F007F193368033F0195DB195A780E
:100C9000B273002A00D1F27300229A705A701A704F
:100CA000A1685B4B8C464946EB181B0163441960F5
:100CB000414659605749DA6099603368DB199A7088
:100CC0005A701A70737B9B46002B00D189E02A0072
:100CD0001900B068736898473268002800D173E043
:100CE0005B465B005B44033BD318D7195A46BA7086
:100CF0001A78002A00D07A701D705B4673735D45C8
:100D000000D16FE00026E3685B19013B1B7802E02D
:100D10000023002601936268BFF35F8F00211160FA
:100D20008AF31088002D44D0002E42D1019A1B0274
:100D3000134320BF6168EFF3108772B60A68002A78
:100D4000FCD0BFF35F8F2068D9B2427B8A4256D075
:100D5000FF221A405500AA4605689244AC46554603
:100D60006544033DAD78002D29D0E5681B0AAC46EB
:100D70006244013A12789A4244D06368BFF35F8FAD
:100D800000221A6087F31088234A536A984508D8CE
:100D9000926A01264A4504D24246D31A5E1EB341E6
:100DA000DEB2300003B03CBC90469946A246AB464A
:100DB000F0BD194A0026536A9845F2D8E8E722693F
:100DC0009342DAD12561D8E75B465B005B44033B85
:100DD000D318D7199D703A78002A00D05A705B4614
:100DE0003B707573207D4A46434600F0FFF8061EAF
:100DF00000D187E72900206800F04CFB83E7FF2241
:100E00001A40B2E700F046FBB7E7C0467C0300207B
:100E1000FFFFFF0FFD04001000400540F8B5CE466F
:100E2000474680B5EFF305833F2213401800103882
:100E3000EFF3108C72B61B490A68002AFCD0BFF38E
:100E40005F8F01210F008740174D184A6F63147898
:100E500091462200C24090464646002231420BD0C5
:100E6000696A134D884681004D59A84512D3114B2C
:100E7000BC43CA584B461C70BFF35F8F0021094B1F
:100E800019608CF31088002A00D090470CBC904663
:100E90009946F8BD08499B00884643441968196083
:100EA000EAE7C046280100D000400540A71700200F
:100EB000801700209C110020D03F054010B5010094
:100EC000024A0348FFF766FA10BDC046C862001028
:100ED000A4170020044A516A00E01900906A536A7E
:100EE0009942FAD17047C04600400540134A30B5D8
:100EF000546A00E01C00956A536AA342FAD12A00A2
:100F00002300801859418C4211D80ED00C000B4A96
:100F1000536AA342FCD307D1084A02E0516A9942BE
:100F200002D1916A8142F9D330BD8542EED90124C4
:100F300001204042C1176442E9E7C0460040054035
:100F4000064A536A9942FCD807D1044B02E05A6A18
:100F5000914202D19A6A8242F9D37047004005401B
:100F600070B504000D00EFF3108672B61A4A1368CC
:100F7000002BFCD0BFF35F8F002D1BD0200000F0B2
:100F8000E5FD164988420AD0200000F0E7FD012166
:100F9000200000F0C1FD0123A340114A1360114B52
:100FA000A400E550BFF35F8F00220B4B1A6086F35D
:100FB000108870BD0B4BA200D5500122A2400A49F7
:100FC00020000B7893430B70044900F0F1FD0021E1
:100FD000200000F0A1FDE5E7280100D01D0E001063
:100FE000386005409C110020A7170020F0B5D646B8
:100FF0004F4646462F4CC0B5656A00E00D00A66A14
:10100000616AA942FAD1AB4249D9EFF3108972B6AD
:10101000294C21680029FCD0BFF35F8F01262749A6
:1010200086408C460978264D0F0037438846F9B232
:101030008A46614654460C701E49041DA4004E6346
:101040006250840063510D6A002435421AD04D6A03
:1010500000E025008F6A4C6AAC42FAD1AB4224D83A
:1010600001D1BA4221D8D04521D0124B154A1E6277
:101070005E631F2318401E3B834013606346424655
:1010800001241A70BFF35F8F00220B4B1A6089F3A3
:10109000108820001CBC90469946A246F0BDAB4289
:1010A00001D1B242B1D80124F3E70024EAE70124D8
:1010B000E8E7C04600400540280100D0A7170020FF
:1010C0008017002080E200E010B5EFF3108472B6C4
:1010D0000A490B68002BFCD0BFF35F8F01238340CC
:1010E000074A0848136202789A430270BFF35F8F81
:1010F00000230B6084F3108810BDC046280100D087
:1011000000400540A7170020024B9C46614489001F
:10111000016070474000003410B50400FFF7B8F9D3
:1011200001002000FFF7F0FFFF232371BFF35F8F63
:1011300010BDC04610B50400FFF7AAF90100200059
:10114000FFF7E2FFFF23237100236371BFF35F8F7B
:1011500010BDC04610B504000120FFF7A5F9044BEF
:101160009C46604480002060BFF35F8F10BDC04686
:1011700040000034F8B54E464546DE465746E0B5D9
:101180004C0064180368033C1A190D0051780600DE
:101190008946002906D128003CBC90469946A246C3
:1011A000AB46F8BD4F004F44033FD81941788846FD
:1011B000002141705170002D12D073684A462900F9
:1011C000B06898473368002873D0DF191A19BD70CA
:1011D0001178002900D0797049462700117000E08D
:1011E0004D464246002AD6D054004444033C1A19C6
:1011F00051788946002911D1736842462900B068A8
:1012000098473368002849D01C19DF19A5703B782E
:10121000002B00D0637043463B70BCE74900494453
:1012200003398A46534459788B46002159705170CE
:1012300073684A464146B06898473368002843D1EE
:1012400052461C199A184B46A3701378002B00D0F5
:10125000637043465446C84613705B46002BCBD0A0
:1012600059463000FFF786FF81460028C4D00200AF
:101270004146B06873689847326800282FD04B46C3
:101280005B004B44033B1119D31842469A700A780D
:10129000002A00D05A704B460B70ADE71C19DF19BD
:1012A0004346BB702378002B00D07B7025704546E9
:1012B00071E749461C19DA19A1701178002900D08C
:1012C000617015704D468CE741461A195344997068
:1012D0001178002900D059704B461370BDE74B467A
:1012E0005B004B44033BD11814194A46A2700A789C
:1012F000002A00D0627042461C000A70C8467BE794
:1013000010B583600023CCB2437301330473426091
:101310008373C4730068012C07D90123421C013375
:10132000DBB2137003329C42F9D8FF2319404B0003
:101330005918002340180338437010BDF0B54E46CD
:1013400057464546DE46E0B5477B03687C00E41916
:10135000033C1A19167883B005008946002E1ED169
:10136000002911D0C07B002869D041000918591804
:1013700003394F70EF73002E06D0710089190339BD
:1013800088460021434499700023380053706E73DF
:1013900003B03CBC90469946A246AB46F0BD7100F6
:1013A000891903398846591848788246002807D198
:1013B00049460029E5D0E87B0028D6D1EF73DCE769
:1013C00042005244033A9446019263445A78934649
:1013D00000225A704A706B6852463100A8689847DC
:1013E0002B68002832D0414601985A1819188E707F
:1013F0001078002825D1514611705A46002A23D072
:1014000059462800FFF7B6FE824600281BD002008E
:101410006B683100A86898472B68002825D04246A1
:101420009918524652005244033A9A189670087816
:10143000002800D0507052460A701A19B8E7EF73AE
:10144000A2E74870D7E72B681A19B1E74146504622
:10145000019A59189A1888701078002800D048709E
:101460001670019A56469046C7E7524651005144BD
:1014700003395A18404693465246181882705A4605
:101480001278002A00D042705A46884616701A19FF
:1014900056468DE7F0B54546DE4657464E46E0B522
:1014A0000C0083B00500002200293DD0477B016875
:1014B000BC426BD066003619033E88198378002B36
:1014C00032D05A00D318033BCB181A78944202D179
:1014D00043E0002A08D053009B18033BCB185A78EE
:1014E0009442F6D142785A70002383704370037897
:1014F0009846002B25D1EA7B002A1DD053009B186B
:10150000CB18033B5C704346EC73002B00D171E0B9
:101510005C0000234444033C09198B704370002F86
:101520001ED1434601226B73100003B03CBC9046B1
:101530009946A246AB46F0BDB846EC730023437013
:10154000EFE719002800FFF715FE2968EA7B8046BF
:101550006F7B8819002AD6D0D0E742781A70C3E78B
:1015600042463900A8686B6898472A68002824D04A
:101570007B00DB191419033BD318A7701A78002AD3
:1015800000D062704246B8461A70CAE77E00F6196B
:10159000033E8B191878804600281BD1E87B002871
:1015A00004D0420012188A18033A5470EC730022D7
:1015B0005A70434601326B73B6E77B00DB19033B7D
:1015C0001419D31842469A702278002A00D05A7013
:1015D0002770A6E744004444E01E019008184478B0
:1015E000A246002C08D1EC7B002C76D1EF730022B0
:1015F0008270DCE7B846A1E763005344033B994699
:1016000049444B784A7042709B4622006B684146C1
:10161000A86898472B6800284BD049464046019C53
:1016200059181A1988701078002850D15146A146CF
:1016300011705A46002A20D059462800FFF79AFD1B
:10164000041E19D002004146A8686B68984700281C
:101650001ED04A4641462B68981862001219033A78
:101660009A1891700178002900D051700470E97BBC
:10167000002905D19B19B9E72B684A469818F6E767
:101680004A0052189A18033A57709B19EF73AEE745
:101690004B462968600000190338CB1808189C7065
:1016A0000278002A00D05A704346A04603708B1976
:1016B00099E74A469818019A9C185246A2700278F7
:1016C000002A00D062704246D0460270B1E74870EE
:1016D00051461170019A9146ABE7032262438A1882
:1016E000033A577082E7C0462D4A2E4B70B51A60F8
:1016F0002D4A2E4B2E491A6010008B689843FBD15F
:101700002C4E2D4B9E420AD2F5430024ED18AD0815
:101710000135A300F35801349847AC42F9D100F0E9
:1017200097F8264A214B1A60214A9368DB018033DF
:10173000FBD14022224B234C234D9A675A671A67EC
:10174000DA66AC4208D223682000002B22D008348D
:10175000FFF7F0FCAC42F6D31C4D1D4CC022A16833
:10176000280000F081FDA560FEF784FE00F058FB24
:10177000FFF75CF8174E184B9E420AD2F54300243F
:10178000ED18AD080135A300F35801349847A54280
:10179000F9D170BD0834FFF7BFFCAC42D3D3DBE70F
:1017A000BFCDFBFE00E00040FE7F3C0000F00040AB
:1017B00000C00040980C0020A80C0020FFFFFF0193
:1017C00000F00140900C0020980C00200000002048
:1017D00000ED00E0A80C0020B00C0020094A1368BE
:1017E000002B06D008491818884208D81060180045
:1017F0007047064B0449181813608842F6D9012037
:101800004042F5E748130020000004206C1A002035
:1018100000BEFDE70FB400B5084883B000F088FDB6
:10182000049B002B07D005A91800019100F0ECFBE8
:10183000034800F07DFD00BEFDE7C046F8620010E1
:101840000863001010B50148FFF7E4FFEC620010D8
:1018500030B50C2083B000F053FBFEF703FE0028E8
:101860000ED0964B964A1A605A609A60DA601A61F6
:101870005A619A61DA611A62924A5A6203B030BDC3
:10188000914CA06700F08EFB0122904B1A60636CB4
:10189000012BFCD103228E4B1A608B4A936B012BD8
:1018A000FCD1022405338B4A01218B48009400F0BF
:1018B000DBFA0523894A00940121894800F0D4FA13
:1018C000884B5A68FF2A02D8802252005A60802230
:1018D0007A4C7F4B21691201824D1A60002900D099
:1018E000E5E0E0217F4B02201A681140802252017E
:1018F0002A43116019684840032101401160042106
:101900009A681142FCD08022802192012A43090169
:101910001160802252005A60734B2361734B5968E7
:10192000FF2900D8C1E00322684B70481A600121EA
:1019300003009A681142FCD0E0251A681540802205
:101940005201024315601B684B400321194011608E
:101950000221664A93681942FCD0802380219B01B2
:101960000343090119608021614B490051606361A3
:10197000604B5A68FF2A00D8596080225E4BE169AB
:1019800012015C4D1A60002905D0606900F08EFBE1
:1019900001300138FDD1E02256490B681A408023FE
:1019A0005B012B431A60802380229B012B43120191
:1019B0001A608022424B52004A60E3614F4B5968E3
:1019C000FF2900D85A6080224D4B216A12014B4DED
:1019D0001A60002905D0606900F068FB0130013809
:1019E000FDD1E02245490B681A4080235B012B435F
:1019F0001A60802380229B012B4312011A608023EE
:101A00005B004B602E4B3F4A23623F4B596891422B
:101A100001D801325A6080223C4B616A12013A4D72
:101A20001A60002905D0606900F040FB01300138E0
:101A3000FDD1E02234490B681A4080235B012B431F
:101A40001A60802380229B012B4312011A6080239D
:101A5000DB024B601B4B63622D4B5A68FF2A02D896
:101A6000802252005A6080222A4BA1691201284D1F
:101A70001A60002905D0606900F018FB01300138B8
:101A8000FDD1E02222490B681A4080235B012B43E1
:101A90001A60802380229B012B4312011A6080234D
:101AA0005B004B60124BA361E8E65A603BE760695C
:101AB00000F0FCFA01300138FDD112E7B01200202D
:101AC000006CDC021BB70000008000403CB000400E
:101AD00030B00040002F68590080024000389C1C44
:101AE00000C0024030800040001BB7003C80004036
:101AF000405973075480004054B00040608000405B
:101B000060B00040FFFF03006C8000406CB00040FC
:101B10004880004048B0004001238340002902D1A2
:101B2000034A13607047034A1360034A1360F9E7DE
:101B300080E100E080E200E000E100E0012383407A
:101B4000014A13607047C04600E200E0024B1030CB
:101B50009B688000C058704700ED00E070B50D0034
:101B6000EFF3108672B60F4A1368002BFCD0BFF358
:101B70005F8F0D4B10309B6884001B590B4A9342BA
:101B800003D09D4201D0FFF75DFE074B9B681D51BE
:101B9000BFF35F8FBFF35F8F0022024B1A6086F3A3
:101BA000108870BD240100D000ED00E0CD010010D0
:101BB000F0B54546DE4657464E46E0B50D0083B0CB
:101BC000EFF3108B72B65C4A1368002BFCD0BFF3A6
:101BD0005F8F1022904680444246584B97009B6886
:101BE000DE59574B99469E4206D0AE4200D17DE069
:101BF000544C331B2F2B12D9504B9B68DE51BFF333
:101C00005F8FBFF35F8F00224B4B1A608BF31088FE
:101C100003B03CBC90469946A246AB46F0BD0123BA
:101C200083409A465246484B1B681A4000925246DF
:101C3000464B1A60BFF35F8FFEF715FB019000283B
:101C400049D1012332009A43414913001B1B5B41D8
:101C50005943090D93689D424DD006201056002827
:101C600005DA31E0062018561A0000282CDB430064
:101C70001B189B00E31898688542F3D1062018567C
:101C800000283BDB42001118890065188846A968C6
:101C90009960E979D971062169569971A9797F29E5
:101CA00026D8AD88E11A6D052D1545444919E02562
:101CB0000905490D2D02294399801218254B9200E0
:101CC000A4181A781870A271009B002B08D15246F4
:101CD0001E4B1A6090E78045B3D0FFF7B3FDB0E725
:101CE00052461D4B1A60184B1A6085E71E0083E7A9
:101CF000BD210902E0E713000022BFE70198002898
:101D00000AD1002A15D0FF30907114489080114AF2
:101D1000107811709871D7E7114A1249D21A083A0F
:101D20005002400D014399800F4952080A43DA805E
:101D3000CAE74E46EBE7C046240100D000ED00E0C4
:101D4000CD010010A403002000E100E080E100E0EC
:101D5000AAAA0000A517002080E200E000BDFFFF56
:101D6000DE03002000F0FFFF00F8FFFFF8B50125BB
:101D700004000543FEF777FAEFF3108672B6214AA6
:101D80001368002BFCD0BFF35F8F1F4A1F4B21004D
:101D9000891A49414B431B0D1D4980008F685BB276
:101DA0003F58BD4226D006215156994226D01221D5
:101DB0005156994224D01E215156994210D02A21C1
:101DC0005156032099420CD0124A11781370A17118
:101DD000BFF35F8F00220B4B1A6086F31088F8BDAB
:101DE00002204100091889005218FF2191710A4907
:101DF0009180E9E78A6809491150E5E70020F0E79A
:101E00000120EEE7240100D0A4030020AAAA0000CC
:101E100000ED00E0A517002000BDFFFFCD01001080
:101E2000084B094A1360094A1360094A1360094ABA
:101E30001360094A1360094A1360094A1360094A8A
:101E4000136070478080808000E400E004E400E0DC
:101E500008E400E00CE400E010E400E014E400E03A
:101E600018E400E01CE400E0F8B504000C201700C2
:101E70001D000E0000F01AF91C494143380000F023
:101E800015F9069A2B04120313432268002A1CDB5F
:101E9000174A8021944226D04901164A164D1160F6
:101EA000164A11600F00AA689743FBD1C021221D7A
:101EB0008901114321222660A0600A602268002A5D
:101EC000FCDAE36008230B60F8BD3F2221680A407A
:101ED0009642DDD1A2681205120D9042D8D1E26877
:101EE000002BD5D1F0E78901D7E7C04640420F006B
:101EF00000C0024000E0004000C0004000F0004090
:101F000080239B001843014BD86270470080054036
:101F100010B580241A4BE4051C6000281AD0012358
:101F2000184C1843184BDC61184C44401C62596231
:101F300098628021124BC90519601548154908603F
:101F4000E021C9041960002A07D18022124B120631
:101F50001A6010BD0C4BD861EBE7FA23DB005A4343
:101F60000E4B9A4208D80E4B1A60074B5A608022DB
:101F7000094BD2051A60ECE7094A13601A00F4E72E
:101F800000B00540D3C007B0008005402D3FF84F9A
:101F9000FCFF01000820014000A00540FFFFFF00FA
:101FA00050170020AA23064A1B0113602F2305495E
:101FB000D360054B19605368002BFCDA7047C046AC
:101FC0000040024000B0FA000060024010B5002856
:101FD00000D110BD0B4B1C68A2689368013B936055
:101FE000002B04DB1368591C11601870F1E791692C
:101FF0008B4201DB0A28F5D10100200003F03AFBF7
:10200000E7E7C0465004002010B5094A84B01468C0
:10201000002C09D0012200910300524203A9054877
:10202000A047012004B010BD00F082F90020F9E7BC
:102030004C170020CD1F001001480421014B184708
:10204000F003002069200010142310B50100188847
:1020500004331B88984710BD162310B5010018885B
:1020600002331B88984710BDF8B54746CE4680B569
:102070000F1E19D0142399460433040000250126AD
:1020800098464B461888434621681B88984701C4E8
:10209000431E9841013540420640AF42F1D1300025
:1020A0000CBC90469946F8BD0126F8E7114A936F9B
:1020B0009B0813D210665166002905D0FFE7FFE7A1
:1020C000FFE7516F106F704704B5002801D0002062
:1020D000C04304F0BDF8002104BDC046F0B5146E45
:1020E000556E576F166FFFF7E5FF14665566576715
:1020F0001667F0BD000000D0132370B51C78012CCA
:1021000015D010DD0F48FFF7A7FF0F4D010080220B
:10211000280000F0A9F8022C06D00C48FFF794FF25
:102120000B4B186070BD084D0A4AAA64F5E7064DCE
:10213000084A29002B00803104C38B42FCD1AA64D9
:10214000EBE7C04653440000A81700204C330000C2
:10215000701700205921001007B5604601880A0A4F
:102160000230DF2AFAD1C9B2820804D3028840883B
:102170000004104300E00068014A5050039007BD7E
:10218000A817002051434343C9188C46110C83B251
:102190004B4310B4040C614392B280B2504362438B
:1021A0001C041B0C001910BC59411304120CC0185C
:1021B0005141614470470000132310B51C78134847
:1021C000FFF74AFF012C0BD004DD010080221048EC
:1021D00000F04AF80F48FFF737FF0F4B186010BDAB
:1021E0000B4C01005422200000F03EF80B4B6365BD
:1021F000A365E36523666366A366E3662367636797
:10220000A367E3672362E361E4E7C0465346000047
:10221000A81800204C330000701700202122001065
:1022200007B5604601880A0A0230DF2AFAD1C9B22E
:10223000820804D3028840880004104300E000684C
:10224000014A5050039007BDA818002001480421FE
:10225000014B18470004002069200010014B1B6847
:102260001847000000040020014B5B68184700007D
:1022700000040020F8B54746CE4680B5437C804632
:102280000E001700002B48D0002A2EDD274B012519
:1022900000240020994604E02B00013401359F42C0
:1022A00019DD002C3ED0631EF35C0D3B59425941B1
:1022B000CBB2325D0A2AEFD1002BEDD1844226DC6D
:1022C000434648461B6802219847013428002B00EA
:1022D00001359F42E5DCB8420BDBF619013E33784D
:1022E0000D3B59425941434619740CBC90469946DE
:1022F000F8BD4346391A3018F6191B68013E984755
:1023000033780D3B5942594143461974EDE7434632
:10231000211A1B6830189847D2E703681100300073
:102320009847E2E743461B7CC3E7C046C4630010FE
:10233000F0B5DE4657464E464546E0B583B006004A
:1023400003F066F9D0231B061C682D4B070001A97A
:1023500018009B4603F084FF8046002808D1019BAB
:1023600064B29C4204D0584603F08AFF0123984689
:10237000B9467B1C3ED0234B1C689A46002C32D0B9
:10238000214D02E0E468002C17D02368002BF9D01F
:102390002B68002B01D09C42F4D120004A4631002A
:1023A000FFF768FF6B460A2220001A7101A901227B
:1023B000FFF760FFE468002CE7D14346002B15D1FE
:1023C00053461C68002C06D06368002B00D0984749
:1023D000E468002CF8D1380003B03CBC9046994624
:1023E000A246AB46F0BD4346002BF4D0584603F05E
:1023F00027FFE5E7300003F00BF98146BBE7C04655
:10240000900C00204013002044130020F0B54646F5
:10241000DE465746C0B5904682B00E00002830D147
:10242000194B1A4D1A685B68194F9A46194B01925D
:102430009B465B461C68002C05D115E0A34205D0E5
:10244000E468002C10D02B68002BF7D1A368002B78
:10245000F6D04146300098470028F1DD02B01CBCA0
:1024600090469A46A346F0BD01200021FEF73EFDAE
:102470007B6A9A45DDD8BA6A01998A4201D29A45A7
:10248000D7D001204042E9E7C06200104413002089
:102490000040054040130020F0B54646D6464F4662
:1024A000C0B5884682B01600012840D1D0231B0653
:1024B0001C68204B01A918009A4603F0D1FE071EA4
:1024C00007D1019B64B29C4203D0504603F0D8FE72
:1024D0000137B146731C25D0174B1C68002C14D053
:1024E000164D02E0E468002C0FD02368002BF9D0D1
:1024F0002B68002B01D09C42F4D120004A46414673
:10250000FFF7B8FEE468002CEFD1002F06D13000B1
:1025100002B01CBC90469946A246F0BD504603F05E
:102520008FFEF4E7404603F073F88146D4E70126B6
:102530007642ECE7900C002040130020441300206A
:102540000D4B1A68002A12D0824203D109E098424A
:1025500007D01A00D368002BF9D1002900D0D06031
:1025600070470029FCD1C368D360C160F8E7002937
:10257000F6D01860F4E7C0464013002010B500F014
:1025800035F910BD7047C0460022014B1A707047E4
:10259000A6170020012070474B790020FF2B00D0A8
:1025A00070478B79002BFBD1CB79012BF8D1082A0E
:1025B000F6D98A78014B09301A70F1E7A617002086
:1025C00070B5002915D115495379107909781B0286
:1025D00003430020994200D070BD5378012B0AD0EC
:1025E000022BF9D1002064220021FFF791FC012089
:1025F000F2E70120F0E7D478917824020C4305003B
:10260000E20502D5620A93401D000548FFF71CFD54
:102610007F210300214028009847C046A6170020CC
:10262000554200000123037000487047C863001042
:102630004A780B7812021A438B7810B51B041A43A0
:10264000CB781B0613439622D200934200D010BDD4
:102650000348FFF7F9FC0021030008009847C04633
:102660005542000070B5184C82B005000E002000E5
:1026700001A903F0F5FD002808D1D0231B061B6833
:10268000019A93421CD0200003F0FAFD002001F0D3
:1026900073FE002807D103256D42200003F0D0FD12
:1026A000280002B070BD002001F07EFE0028F2D0AC
:1026B00029003200002001F085FE051EEBD0ECE77A
:1026C00003256D42ECE7C0467817002010B51F20A7
:1026D000FFF734FAFA200021800010BD10B5064C37
:1026E0000021200003F0BCFD002804D000F090FE83
:1026F000200003F0A5FD10BD78170020F0B54F466F
:102700004646D646C0B5364B82B007000E001800CC
:1027100001A9994603F0A4FD002808D1D0231B0687
:102720001B68019A934241D0484603F0A9FD00205E
:1027300001F022FE002831D00024002E33DD294B89
:102740009A46984612E0002847D100F061FE00202A
:1027500001F0B8FE002001F00FFE002823D0002079
:1027600001F0ECFE002827D0A6421CDD0020351B1E
:1027700001F0E4FE8542E6DC39192A00002001F070
:1027800059FE050000F044FE002001F09BFEFEF71C
:10279000A1FB4346641918605960E5E70020002159
:1027A000104B18605960484603F04AFD02B01CBC4B
:1027B00090469946A246F0BDFEF78CFB53460D00AD
:1027C0001A685B6800218446074812184B419D42F5
:1027D000E9D8C9D19445C7D9E5E70500CCE7C0469B
:1027E00078170020B00D002020A1070010B51D4B68
:1027F00084B01B7802F0B2F81B491F20FFF7AEF936
:1028000001211F20FFF788F91848FEF785FCFEF725
:102810003FF80400FEF75EFBFA2200239200121834
:102820004B41994218D901225242D31701210291FA
:10283000002101910E4920000091FEF72DF80400BF
:10284000631E9C41E4B2002803D001210948FFF730
:1028500077FE200004B010BD9942E7D19042E2D843
:10286000E4E7C046DC650010DD2600107817002084
:10287000CD2600101004002000487047806400102E
:10288000004870472C64001070B5040016480378A7
:10289000002B1CD0002C06D1C1241448144BA400DA
:1028A0004380048070BD052C1CD8124BA400E55851
:1028B00000230E48821CE95CDCB200290BD00133F6
:1028C00011800232132BF6D1CA24A400E9E71121AA
:1028D00002F0DEFADEE7C023013464009B001C43F3
:1028E000A4B2DEE70020DDE79017002018130020D7
:1028F0000904000094640010F0B54E46DE465746C9
:10290000454698238024E0B5724A6402D35885B0C6
:10291000994623422CD0012223216F4B00205A5488
:10292000DA706E4901F0D6FA80226D4B92021A6578
:102930006C4B03934B46DB0620D480234A465B0155
:102940001A4252D180234A46DB011A4200D096E057
:1029500080234A461B021A4200D09FE04C4500D01B
:10296000B3E005B03CBC90469946A246AB46F0BDEC
:10297000102303934B460024DB06DED5554B9B6D9D
:102980009846002B2BD0564B01269B460123002452
:1029900001279A4607E001347F00E4B2534601362E
:1029A0001E40202C1BD043461F42F4D05B465146AC
:1029B0009F6563085D00484B72429C460A40AD1813
:1029C0006D016544280000F0A5FB002871D1434645
:1029D0000134BB4398467F00E4B2002BDED1802354
:1029E0004A465B01039C1A42ACD01C430023394A7F
:1029F00039481360394A00219360D3603A4A403025
:102A00009360D360394A9360D360394A9360D3604E
:102A1000384A9360D360384A9360D360374A9360F2
:102A2000D360374A9360D360364A9360D360364AA6
:102A30009360D360354A9360D360354A9360D36026
:102A4000344A9360D360344A9360D360334A9360CE
:102A5000D360F0229200FFF701FC314B314A002194
:102A60001A600020012201F00BFA80221C4B120395
:102A70001A6580234A46DB011A4200D168E7012229
:102A8000042100201C4301F06BF91022144B1A653D
:102A900080234A461B021A4200D15FE7012205212A
:102AA00000201C4301F05CF980220D4B12011A65D5
:102AB00054E75346AA8AA97800200093002301F026
:102AC00037FA280000F04AFA81E749461648614083
:102AD000FEF7A0FE000011504C1300200000105023
:102AE000003011501000010008001050100010506C
:102AF00018001050200010502800105030001050C6
:102B00003800105040001050480010505000105035
:102B100058001050600010506800105070001050A5
:102B20005417002080011050AC64001010B5012132
:102B30000520FEF7F1FF10BD10B50348002200216B
:102B4000203000F03DFA10BD4C1300208022024BD3
:102B50005202DA647047C04600201150F0B5C646F4
:102B600000B5070000F0D4F90C23364D3649AB67A9
:102B70000520FEF7F3FF40239846344C4022002105
:102B80002000FFF76BFB43460126A3838020002330
:102B900022212F4A6670A260136060540139635489
:102BA000023163544146A1873E212A4A63542A498F
:102BB0006360E260A1620B60E262284A6362936034
:102BC000D360274A20009360D360264A0021936097
:102BD000D360254A40309360D360244A9360D36029
:102BE000234A9360D360234A9360D360224A936060
:102BF000D360224A9360D360214A9360D360214A14
:102C00009360D360204A9360D360204A9360D3607E
:102C10001F4A9360D3601F4A9360D360F0229200F2
:102C2000FFF71CFB1C4B1D4A38001A6080239B05D4
:102C30002E64EB6490231A4AEA50FFF787FF04BC26
:102C40009046F0BD00001150F92800104C130020F0
:102C500084001050000110508000105000001050EF
:102C60000800105010001050180010502000105094
:102C70002800105030001050380010504000105004
:102C80004800105050001050580010506000105074
:102C90006800105070001050541700208001105030
:102CA00010D001000B785B0602D14B78052B00D0C9
:102CB00070478A78014B1A60FAE7C046000011504D
:102CC000F0B54746CE4680B58B7848799C460723B9
:102CD000CF780A790340BF07BF0F1B021343FAB234
:102CE000614691467F2283B068460A406146C171C1
:102CF000C179654649B28846CE0F54002C48A119C7
:102D0000490141188D704546ED43ED0F4D7000258A
:102D10008B83CD708F774146AC4600292FDB254D44
:102D2000D100A846654697014144C719B9600D60B6
:102D3000002A2FD02049D2008C466244A1194901B3
:102D400041184A603F213F338B43494602292DD029
:102D50001A4FA41939686401CB183B60184B00194D
:102D6000C160594080231B060B4349468D061D4315
:102D70001560012003B00CBC90469946F0BD114D82
:102D8000D100A846654697014144C719B9620D6054
:102D9000002A06D100237601801943600A4BC360E4
:102DA000E7E70749D2008C466244C7E75B00CFE7FC
:102DB0004C130020840010500400105054170020C1
:102DC00000001050800010500001105000231C4AD9
:102DD00010B59360D3601B4A1B489360D3601B4AB5
:102DE00000219360D3601A4A40309360D360194A3F
:102DF0009360D360184A9360D360184A9360D3609D
:102E0000174A9360D360174A9360D360164A936061
:102E1000D360164A9360D360154A9360D360154A15
:102E20009360D360144A9360D360144A9360D36074
:102E3000F0229200FFF712FA114A124B1A6010BDED
:102E400000001050080010504C13002010001050CB
:102E50001800105020001050280010503000105062
:102E600038001050400010504800105050001050D2
:102E70005800105060001050680010507000105042
:102E800080011050541700207F2070B515000840B5
:102E90004000C909044C40184001201829001A00BC
:102EA00000F08EF8012070BD4C1300207F2010B57B
:102EB000084049B2002804D1CB43084ADB0F013354
:102EC00093668022C90F4000401805494001081848
:102ED0001201002100F048F810BDC046002011503A
:102EE0004C1300207F2310B50B400BD0C9095800AC
:102EF0004018054B4001181800230022C3700349F5
:102F000000F032F810BDC0464C130020FFF7FFFF61
:102F100080220D4B520410B51A600C4B0C491A60FC
:102F200010008B689843FBD10A4C9C2200212000A2
:102F3000FFF794F98022002152010748FFF78EF92C
:102F40000923636710BDC04600E0004000F0004068
:102F500000C0004000001150000010500023037416
:102F6000438283828361704710B58368002901D052
:102F70001C682140002A11D08024E4001143224221
:102F80000CD01A6822420BD10A4A0A401A60FFE7A5
:102F9000FFE7FFE7FFE7FFE7FFE78368196010BD82
:102FA0007F2281780448CB091140044A9B009A583B
:102FB000FEF730FCFFFBFFFFC0640010240400207C
:102FC000F8B5CE460023474680B5838201330374AB
:102FD000436804001B6881619946838B1E1C9342E1
:102FE00000D9161CE37880251800471EB841B6B2F8
:102FF000ED0040033543054301204340921BE3703D
:10300000637892B26282002B52D0002A1FD1A02393
:10301000DB011D43394B1B6C4A468027384BBF05EB
:1030200013401F436368A2681F6013685B055AD48E
:10303000344B2B401360FFE7FFE7FFE7FFE7FFE7B5
:10304000FFE7A3681D600CBC90469946F8BD80233D
:103050005B011D43294B1B6C9B0702D4A3787F2B7C
:10306000DAD9A38B191C934200D9111C80268BB28C
:10307000F600D21A1E439846E37892B21900481E11
:10308000814149030E4301214B40E3706378628222
:10309000002B1AD0002A02D18023DB011E434A46AE
:1030A000A027194B36041340FF0535431F43B9E7EA
:1030B0003200E068FFF7D8F8A369628A9C46802353
:1030C00066441B02A6611D439FE7E068424640300C
:1030D000A169FFF7C9F8A369628A4344A361802309
:1030E0001B021E43D6E77F22A1780848CB09114076
:1030F000074A9B009A58FEF78DFBC046000011500E
:10310000FFFFFFAFFFFBFFFFFFFFFFDFC06400100B
:1031100024040020F0B5C64600B5067C0400002E4D
:1031200000D1D4E083681A681D684378AD05AD0D01
:10313000002B00D063E0838AEB189BB28382A18BC3
:103140008D4207D20023638263681B68300004BC91
:103150009046F0BD62681268520010D58D420ED1C3
:10316000A26817686278BF01BF0D002A00D092E004
:10317000FB18A382AF4265D200236382E6E7638A2D
:10318000002BE3D062680F1C166899424AD8E27897
:1031900080251100481E8141BFB2ED0049033D4327
:1031A0000D4301214A40DB1BE27062789BB26382CF
:1031B000002A39D0002B2FD08022520115434C4ACF
:1031C000126C920741D4A2787F2A3ED8494B3340F3
:1031D0008026B6051E436368A2681E6013685B05FF
:1031E00000D57BE0444B2B401360FFE7FFE7FFE790
:1031F000FFE7FFE7FFE7A36800261D60A6E72A00B8
:10320000C1688069FFF730F8A38AA269EB189BB206
:103210005219A382A26192E7A023DB011D43344B24
:103220001B6CD3E71F1CB2E73A00A169E068FFF707
:103230001BF8A3699C46802367441B021D43A761BA
:10324000638AB7E7638A29009AE7A28B111C9A4226
:1032500000D9191C80278AB2FF009B1A1743904699
:10326000E2789BB21100481E814149030F430121BE
:103270004A40E27062786382002A1AD0002B02D1A1
:103280008023DB011F431D4B3F043340A026F6057E
:103290003D431E439FE7E1683A004031A069FEF7D5
:1032A000E3FFA38AA58BFB18A382A369DB19A361A3
:1032B00060E7E06842464030A169FEF7D5FFA369A8
:1032C0004344A36180231B021F43638AD6E77F2305
:1032D00081780B4A19400B48FEF79CFA7F22A178AF
:1032E0000948CB091140064A9B009A58FEF792FA0A
:1032F00000001150FFFFFFAFFFFBFFFFFFFFFFDFED
:1033000024040020E0640010C0640010024B5878D0
:10331000431E9841C0B2704740110020024B1878FC
:103320004007C00F7047C04640110020014B18787D
:103330007047C046A2170020F8B54746CE462A4E31
:1033400080B533788046002B04D001200CBC904619
:103350009946F8BD532200212448FEF77FFF244CF4
:103360002000FDF7D9FE234B1C60234C20001C30AD
:10337000FDF7F0FE200001F03FFD204B1C60204BCC
:10338000002B28D01F4D00242800FFF74BF91E4FBB
:103390001E4A38602B7891460AE063001B193A6890
:1033A000DB009B58984701342B78E4B2A34209DB39
:1033B0009C42F2D315D14B46984701342B78E4B2A6
:1033C000A342F5DA4046FFF7C9FB4046FFF7AEFBE4
:1033D00001233370B9E701F0BFF80A4B1B78002BCB
:1033E000F0D000231B68FFDEA21700204011002050
:1033F000F8100020941100202C04002098110020C7
:1034000025260010A1170020080E002059450010A5
:10341000F0B5DE4657464E464546E0B58BB001F066
:10342000A3FA002800D189E1CD4BCE4E9B4607ACD4
:103430003568EA69EFF3108172B61368002BFCD08F
:10344000BFF35F8F29622800210001F04FFBEA697A
:103450002B6ABFF35F8F0021116083F3108800286F
:1034600000D16BE16378082BE2D8BF4A9B00D358A8
:103470009F466368002BDBD0A0689847D8E77F227F
:103480002179BA4B0A405500C8095B191B1818006E
:1034900001273030C578BD43C570C5780337BD43BB
:1034A000C570002A00D192E1B14ADB7C002A00D12C
:1034B0004DE1B04A1278934200D346E15A00D31846
:1034C000AD4ADB001268D318002B00D136E11D692C
:1034D00040E10122A54D01212B78042013432B70DC
:1034E0003323EA5C8A43EA54EA5C8243EA540133B8
:1034F000EA5C8A43EA54EA5C8243EA542378002077
:103500009A4600F0A9FE23795A06920F032A00D1A9
:1035100041E160221A40402A00D139E1DB06DB0E8E
:10352000012B00D164E1002B00D177E1022B00D008
:1035300031E17F232089C1B20B400F2B00D92AE152
:103540005B0040B2EF18C00F9946894B3F18FF7CD3
:10355000002B00D193E1874B1B789F4200D38CE175
:103560007B009C46844B67441B68FF009C46674475
:10357000002A00D188E1002F00D10CE1F86800F0AA
:103580006BFEFB6808AA0021504698472CE1774B58
:103590001B78DB0700D44BE7784B002B00D147E7C3
:1035A00000E000BF44E7714B1A78D20700D43FE730
:1035B000734A002A00D13BE718780007C00F00E0EB
:1035C00000BF35E76B4F6A4B3A780025002B00D1DE
:1035D000AEE0694B984607E0AA4200D0ABE0013567
:1035E000EDB2AA4200DA23E7AA42F5D941460968BA
:1035F0006B008C465B19DB0063445B69002BEED0EB
:10360000207898473A78EAE723785A4F584A9846FC
:1036100000253B78002A00D1CFE0574A9146594A0D
:1036200092463A00474690460FE04A4612686B00C1
:1036300094465B19DB0063445B6838009847434657
:1036400001351B78EDB2AB420BDBAB42EDD86CD150
:10365000534638009847434601351B78EDB2AB42DC
:10366000F3DA424D532200212800FEF7F7FD102225
:10367000FF21E81CFEF7F2FD28002022FF21133075
:10368000FEF7ECFD00F0DEFD3F4B002B00D1CFE656
:1036900000E000BFCCE62378364F354A9846002537
:1036A0003B78002A00D17FE0334A9146354A924662
:1036B0003A00474690460FE04A4612686B0094462F
:1036C0005B19DB0063445B6838009847434601356B
:1036D0001B78EDB2AB420BDBAB42EDD825D15346A4
:1036E00038009847434601351B78EDB2AB42F3DA18
:1036F0001E4D532200212800FEF7B0FD1022FF21AD
:10370000E81CFEF7ABFD28002022FF211330FEF756
:10371000A5FD00F097FD2379AB7089E6504600F0D7
:1037200059FF3B78002B00D1E6E200235B68FFDE07
:10373000002A00D17CE600235B69FFDE0BB03CBCB5
:1037400090469946A246AB46F0BD9B1ADBB2002BD1
:10375000F4D10E4D62792078A368A84768E6C04688
:10376000A065001098110020146500104011002081
:1037700025260010A1170020080E002000000000E0
:1037800000000000D545001000000000C9470010EF
:10379000C848002821D120780021FFF787FB207836
:1037A0008021FFF783FB43E6404600F013FF3B78A0
:1037B000002B9DD000235B68FFDE404600F00AFF2F
:1037C0003B78002B00D14CE700235B68FFDE627979
:1037D0002078A36800F054FD2AE600F03DFD08AA19
:1037E0000021504600E000BF002800D020E6D2E7CC
:1037F000237A0F2BCFD8B04AED18EB78002A1BD0D4
:10380000AE4A1278934215D2AD4A5D00EB181568A6
:10381000DB00ED18002DBED0E86811E0202A00D1B1
:103820000BE1002AB7D16379092BB4D8A54A9B00D4
:10383000D3589F469B1ADBB2002BACD1A248A34DB4
:1038400000F00AFDEB6808AA0021504698470028BE
:1038500000D0EDE5602523791D409CD163790A3BBA
:10386000012B98D800F0F8FC63790A2B00D118E1FD
:1038700008A9504600F078FCDAE5FF1AFFB2002FE5
:1038800032D00027002A86D163799846012B05D0D3
:10389000002B00D1F0E0032B00D07CE7E288002A67
:1038A0000ED14346012B00D10CE24B46EB18181801
:1038B0003023984680444346DB789B0700D4F2E1EE
:1038C000002F00D1B4E5F86800F0C6FCFB6808AA38
:1038D000002150469847002000F0BEFC3423EB5CEA
:1038E000DB0700D5A4E5C3E7002A00D0D6E0774F78
:1038F000CAE7A37903931A006B789A4207D06B78D2
:10390000002B00D0A7E1039B002B00D0E8E06B4622
:103910001B7B08A950466B7000F026FC88E56B788D
:1039200006AA0232137008A90123504600F034FCA5
:103930007EE52B7806AA99061B07DB0FC90F5B00F3
:1039400002320B43138008A90223504600F024FCE6
:103950006EE5E088030AC0B20F2B00D91BE75C4973
:103960009A008A58974608A800F07CFCA179504636
:10397000FFF7E2F802222B7813432B7058E5E38817
:10398000012B00D007E708222B7808A913435046E3
:103990002B7000F0E9FB4BE5E388012B00D0FAE641
:1039A00008222B7808A9934350462B7000F0DCFBCB
:1039B0003EE5484B002B00D1EDE600E000BFC378A8
:1039C00081781B0202000B43504608A900F0E4FB7B
:1039D0000AE7414B002B00D1DDE600E000BF021EEC
:1039E00000D1D8E6137808A9504600F0D5FBFBE6D5
:1039F0002189FEF749FF021EF4D1CCE6022B00D14B
:103A000097E1364B002B00D1C5E600E000BF00284F
:103A100000D1C0E6C37882781B02134308A90200D4
:103A2000504600F0B9FBDFE6FEF726FF1223020046
:103A300008A9504600F0B0FBD6E6237A0F2B00D938
:103A4000A9E61D4AED18EB78002A21D01B4A12780E
:103A500093421BD21A4A5D00EB181568DB00ED1883
:103A6000002D00D197E6E86800F0F6FBEB6808AAA5
:103A7000002150469847B7E62B004B4418183030C9
:103A8000C37806AA9B07DB0F02325BE79B1ADBB207
:103A9000002B00D07FE60C480C4DE5E70A480B4FA1
:103AA0006DE506AB9A1C08A901235046157000F07D
:103AB00073FBBDE40000000025260010A1170020C4
:103AC000080E002038650010E9460010A0650010BF
:103AD0006065001000000000000000000000000011
:103AE000581EC0B2FEF7CCFE002800D153E6437842
:103AF000022B00D04FE60122C17991464B091340B9
:103B00001F012B7889099846102342469A431300D7
:103B10004A460A4020213B4352018B4313432B70FA
:103B200009239846C37882781B021343C318804444
:103B30000593D146984500D386E0434601225B7841
:103B400001920B2B07D14346DB78019343461B7848
:103B5000984443465B78042B00D01CE64246059B04
:103B60009B1A9BB29A46774A774B1B78002A25D03E
:103B70000022002702921AE0744A7B001268DB19C7
:103B80009446DB009C44634604939B68524641463E
:103B900048469847082802D95346834222D26A4BA6
:103BA00001371B78FFB20297BB4200DAF3E5BB4254
:103BB000E2D814D15A46664B0492E7E75246414692
:103BC000484600F01DFD57468246082802D9874224
:103BD00000D3B1E05C4B1B78002B00D1DBE5002368
:103BE0009B68FFDE8246019B012B00D198E0002BF1
:103BF00017D0434699786A18D2780B00FF2A00D074
:103C0000C9E5002206E05318DBB2E818C078FF28A7
:103C100000D0C0E5EB18DF700132019BD2B29A42AE
:103C2000F1D328003B0052464146133000F0DAFE43
:103C3000454B029A1B78D044934200DAABE5059BD2
:103C4000434500D979E7CA46424B002B00D15EE6D6
:103C500000E000BF5BE65046FFF7B8F8AB783A4F9C
:103C6000384A019300213B78002A00D156E5374AB3
:103C700091463A000F0090460FE04A4612687B00DA
:103C80009446DB19DB0063445B6850469847434623
:103C900001371B78FFB2BB422EDBBB42EDD800D010
:103CA00043E52D4BF1E75046FFF700F9434602226A
:103CB000DB7813434246D370D37801221343424644
:103CC000D370FDE54B46EB18181830239946814414
:103CD0004B46DB789B0700D4F2E55046FFF702F92C
:103CE0004B460222DB7893434A46D370D378424650
:103CF00093434A46D370E3E5532200212800FEF7A0
:103D0000ADFA1022FF21E81CFEF7A8FA28002022B5
:103D10001330FF21FEF7A2FA6B461B79AB70F2E578
:103D2000049A0B4B92689A4200D062E702230193F7
:103D30005FE7FEF7A5FD6AE600230293074B002725
:103D4000049350E725260010A1170020080E00203C
:103D50000146001000000000D5450010A0650010CD
:103D600070B586B005000C000C2200216846FEF7F5
:103D700075FA6B461D705C70032C4FD01BD9042C58
:103D800007D0052C40D13C4B1A78D20765D406B039
:103D900070BD394B1A78D207F9D504211A780A4335
:103DA0001A70364B1C68E269EFF3108172B6136823
:103DB000002B19D1FBE7022C26D101212E4B1A78BA
:103DC0008A431A701A780331A2431A7000225A707B
:103DD0001A788A431A70294B1C68E269EFF3108144
:103DE00072B61368002BFCD0BFF35F8F2162694667
:103DF000200000F047FFE269236ABFF35F8F0021D4
:103E0000116083F31088C2E71C4B1C68E269EFF372
:103E1000108172B61368002BE6D1FBE7164B1A78B7
:103E20005207B4D504211A7803AE8A431A700021D0
:103E30000C223000FEF712FA052373700F4B357019
:103E40001C68E269EFF3108172B61368002BFCD096
:103E5000BFF35F8F21623100CAE704211A788A43D9
:103E60001A70064B1C68E269EFF3108172B6136892
:103E7000002BB9D1FBE7C04640110020981100206B
:103E800070B584B001AC06000D000C2200212000AA
:103E9000FEF7E4F9012363700D4B25711D68267050
:103EA000EA69EFF3108372B611680029FCD0BFF302
:103EB0005F8F2B622100280000F0E4FEEA692B6A84
:103EC000BFF35F8F0021116083F3108804B070BDD1
:103ED0009811002070B584B001AD06000C000C22D2
:103EE00000212800FEF7BAF906232100082202A8C3
:103EF0006B702E70FEF7B8F90C4B1C68E269EFF39B
:103F0000108372B611680029FCD0BFF35F8F236263
:103F10002900200000F0B6FEE269236ABFF35F8F3C
:103F20000021116083F3108804B070BD9811002047
:103F3000F0B5C646804600B584B001AC0F0016004F
:103F400000210C2220001D00FEF788F94346237053
:103F5000072363700F4B65711D682771A660EA69BE
:103F6000EFF3108372B611680029FCD0BFF35F8FA6
:103F70002B622100280000F085FEEA692B6ABFF35E
:103F80005F8F0021116083F3108804B004BC904659
:103F9000F0BDC04698110020F8B55746DE464E46A3
:103FA0004546E0B517000A9A83460C009246002F5A
:103FB00045D04A78052A15D1CE78B607B60FB34258
:103FC00010D17F238A7813400F2B0BD81D4B00256F
:103FD00099467F2398464B462000997800F0C8FC0C
:103FE000002806D100203CBC90469946A246AB462C
:103FF000F8BD21005846FEF763FE0028F2D0A378F2
:104000005AB2002A14DB5246137023780135E418A3
:10401000BD4214DA6378052BE4D1E3789B079B0F4C
:10402000B342DFD14246A37813400F2BD3D9D9E74F
:104030000B9A013513702378E418BD42EADB0120A6
:10404000D1E7C046401100207F2370B58A78050073
:104050000C0013400F2B01D9002070BD054B200030
:10406000997800F085FC0028F6D021002800FEF7A2
:1040700027FEF2E7401100207F2370B50B40134C60
:104080005B00C909E41864183034E078C007C00F39
:104090001AD1E3785B0700D570BD01210C4E49426F
:1040A000306802F0E5F8E3780025DB0707D4E37811
:1040B0005B0704D404220125E3781343E3703068DE
:1040C00002F0BEF82800E7E70020E5E740110020F5
:1040D0009411002070B50D0001210F4C4942206859
:1040E00002F0C6F87F2129404B000C49ED09C918A0
:1040F00049193031CB780025DB0707D4CB785B0733
:1041000004D50422CB7801359343CB70206802F0AC
:1041100097F8280070BDC04694110020401100207F
:1041200070B57F240C4065000E4C06006419C80968
:1041300024183034E5780020ED0700D570BD012546
:10414000E0782843E0703000FEF79EFE0028F5D1AD
:104150000122E3789343E370E37803329343E370FF
:10416000ECE7C0464011002070B50A4C060008225A
:1041700020000D00FEF778F800230021A360E38102
:10418000A38169563000C943C90FC9010022FFF756
:10419000C7FF70BDE4100020F0B5C6469046274C1E
:1041A000082200B5060020000D001F00FEF75CF895
:1041B0004346A3600023E381EB79AA791B021343F2
:1041C0001A1CBB4200D93A1C97B2A281002B12D014
:1041D000002F1FD04346002B2ED03B1C402F17D85A
:1041E0009FB223787F2B1ED80021154A3B00300058
:1041F000FFF796FF09E0002169560023C943C90F64
:10420000C90100223000FFF78BFF04BC9046F0BDCF
:104210004023E5E723787F2B02D800210022E5E741
:1042200080210022E2E7064C3A0041462000FEF7DA
:104230001BF880212200D9E70020E6E7E4100020E7
:104240000011002010B5142200210248FEF706F8E4
:1042500010BDC046E4100020014B18617047C046F5
:10426000E410002010B5054C010008222000FDF7E5
:10427000FBFF0023A360E381A38110BDE4100020B5
:1042800070B53A4C1D0023780600DA09C9098A4244
:1042900012D00020002D0ED1354B002B03D0210071
:1042A0003000FEF7FFFC2369002B2ED022000221F4
:1042B00030009847012070BD7F2B06D8A0680028E9
:1042C00025D02A002B49FDF7CFFFA268E3895119B9
:1042D0005B19E2889BB2E381A1609A4201D03F2D35
:1042E00017D82369002B05D0220001213000984700
:1042F000002824D0002161560023C943C90FC901F9
:1043000000223000FFF70CFFD5E70120D3E70020A3
:10431000D1E7A289D31A1D1C9BB2402B00D940259E
:104320002378ADB27F2B14D80021002D05D10022B7
:104330002B003000FFF7F4FEBDE70E4AF8E700213E
:104340003000FEF7B3FD30008021FEF7AFFD012005
:10435000B1E7002D01D18021E9E7064C2A002000B9
:10436000FDF782FF80212200E2E7C046E410002032
:10437000A52C00100011002010B50400FEF7C6FFA8
:10438000002801D1002010BDFEF7C8FF0028F9D198
:10439000B6208000444303480019037901201840E7
:1043A000F1E7C0460C0E00200300B6208000584301
:1043B00010B5034B1030181800F06EFB10BDC0464E
:1043C0000C0E0020F0B5B625AD0045432C00C646C6
:1043D000174E1034341900B592B2200000F0D4FB0F
:1043E0000700200000F072FB3F2803D8380004BC0F
:1043F0009046F0BD7319D97800209846FFF73CFE2F
:104400000028F3D0200000F061FB3F2805D8434688
:104410000020D978FFF75EFEE8E796239B00EA18B4
:104420004346B218D97800204023FFF779FEDDE734
:104430000C0E0020F0B5B625AD0045432C00C64655
:104440001F4E2C34341900B592B2200000F05EFCEF
:104450000700200000F020FB3F2803D8380004BCF0
:104460009046F0BDFEF752FF0028F7D0FEF756FF4A
:104470000028F3D1200000F00FFB0028EED07319C4
:10448000997800209846FFF7F7FD0028E6D0A6238C
:104490009B009C466544761931004022200000F0C4
:1044A00073FB43469978002805D0030032000020B2
:1044B000FFF736FED2E70020FFF70CFECEE7C0463E
:1044C0000C0E0020F8B50500FEF720FF002801D1F2
:1044D0000020F8BDFEF722FF0028F9D1B624A40081
:1044E00065432E00144F2C36BE19300000F0D4FA6C
:1044F0000028EDD07C19A1780020FFF7BDFD002831
:10450000E6D0A6239B009C4665447D192900300017
:10451000402200F039FBA178061E08D003002A00D3
:104520000020FFF7FDFD0028D2D03000D1E70020A9
:10453000FFF7D0FDCCE7C0460C0E00200300B620EC
:104540008000584310B5034B2C30181800F0BEFA09
:1045500010BDC0460C0E0020B622F0B51B4C83B037
:10456000920000212000FDF779FEFF236371184BB4
:1045700080260025E3800127082321002000760003
:1045800023732781320048310095073B103000F03B
:1045900047FA2100200049313200FF310097012302
:1045A0002C3000F03DFA92239B00E6183000FCF717
:1045B000B3FD94239B00A662E61865623000FCF709
:1045C000ABFD2664656403B0F0BDC0460C0E002050
:1045D00000C2FFFF10B5094C052200212000FDF7A5
:1045E0003DFE20002C34103000F006FC200000F0CE
:1045F00003FC0121200000F025FC10BD0C0E002062
:10460000F0B5C64600B54B7982B00700022B05D045
:104610000024200002B004BC9046F0BD8B79022B30
:10462000F6D1304EB378002BF2D18B780924337059
:104630000D784D196B78242B0BD1082A02D80FE086
:10464000A2420DD32B78ED18E4186B78A4B2242B7A
:10465000F6D0052B1BD0042B02D16B790A2B24D06A
:1046600035001035280000F031FA3F28D1D9F17813
:104670000020FFF701FD0028CBD0280000F026FA2B
:104680003F2825D8F1780020FFF724FDC1E7290055
:104690003800FFF7D9FC0028BAD0AB7873702B78BC
:1046A000E418ED18A4B26B78D5E72B78290098466A
:1046B000B31C0193F31C00934144022302223800EF
:1046C000FFF76AFC0028A3D00E344444A4B2C7E725
:1046D00096239B00F218F17840230020FFF720FD7D
:1046E00097E7C0460C0E0020F8B56023140012783E
:1046F00000271340202B01D03800F8BD2E4A6379E3
:10470000267915781B0233439D42F5D16378212B1E
:1047100043D009D9222B24D0232B14D1002945D0F2
:10472000022912D00127E7E7202B0CD1002936D02F
:104730000229F7D1214B002BF4D0911D0020FDF769
:1047400077FF0127D8E70027D6E71D4B002BE9D0DC
:10475000E178A37809021943002000E000BF012797
:10476000CAE7002922D00229DCD10125A178E4780A
:1047700024020C43290014712C32A143100000F0D4
:1047800061FB104B002BCDD0290062082A4021404C
:10479000002000E000BF0127AEE70029C2D10632A9
:1047A00007232100FFF7F8FC0127A5E72100FFF709
:1047B000DBFC0127A0E7C0460C0E002031260010CC
:1047C0000000000000000000F0B546464F46D64607
:1047D000C0B55E4D9846EB7882B081460E008B42A4
:1047E00000D176E0AB788B422CD00024200002B0C0
:1047F0001CBC90469946A246F0BD554B002B07D0F5
:104800002800103000F05AF9002801D100E000BF64
:104810002C001034200000F059F93F280FD9E97816
:104820000020FFF729FC002809D0200000F04EF9F5
:104830003F2800D980E0E9780020FFF74BFCAB78F7
:104840009E4244D1434B002B02D0002000E000BF29
:10485000FEF75CFD002817D128002C3000F01CF971
:10486000002834D14346002B31D09B062FD1A978A4
:104870004846FFF701FC041E29D0A9780023002236
:104880004846FFF74DFCB1E7FEF748FD0028E3D1AD
:104890002C002C34200000F0FFF80028DCD0A97890
:1048A0000020FFF7E9FB0028D6D0A6239B00EE18D6
:1048B00031004022200000F067F9A978002837D0A5
:1048C000030032000020FFF72BFC0028C4D0012495
:1048D0008CE743466A46D38096239B00EC1810234E
:1048E0009A46AA44D2882100504600F00FFA1A4B8B
:1048F000002B82D06B79FF2B00D17EE74246002A45
:1049000000D17AE79627BF004744EF1904E001344D
:10491000BC4200D171E76B7922789A42F7D15046B8
:1049200000F0CCF80028F2D1697900E000BFEEE792
:104930000020FFF7CFFB8FE796239B00EA18E9786A
:1049400040230020FFF7ECFBAB7879E70C0E00204A
:1049500000000000000000000000000010B5002072
:10496000FEF7EAFC10BDC04610B5FEF7DFFC10BD37
:10497000072310B54479027923401B021A43C378F8
:104980009B079B0F022B16D00DD80020012B09D1BD
:1049900002394B425941114B00209C4661449142DF
:1049A0004041C0B210BD022914D0402300209342E0
:1049B0004041C0B2F6E7022905D0002040239342CF
:1049C0004041C0B2EEE7064B9C4662445042504123
:1049D000C0B2E7E78023DB00E8E7C046FF03000042
:1049E00000FEFFFFF0B500247F27002A06D115E066
:1049F0000D786419A4B24919A2420FD94D78052D3A
:104A0000F6D13D008E7835406D004519F609AB555D
:104A10000D786419A4B24919A242EFD8F0BDC0467E
:104A2000F0B5C64600B51E0006AB1B7804009846DC
:104A300080230F0015001B0200209A4226D86069CF
:104A4000002803D00121494201F012FCA06900288E
:104A500003D00121494201F00BFC4346A5806D00C3
:104A6000ADB223726B1EA381002360696D42E381A6
:104A70002760E68065812382002801D001F0E0FBF9
:104A8000A069002805D001F0DBFB012004BC9046A2
:104A9000F0BD0120FAE7C046C189028A89B292B20C
:104AA0008B1A9BB2914202D242899B1A9BB2828896
:104AB000101C9A4200D9181C80B27047C389008A22
:104AC000181A43425841C0B27047C04610B5C48955
:104AD000018AA4B289B2631A82889BB28C4202D244
:104AE00040891B1A9BB2D01A80B210BD70B5040069
:104AF00080690D00002803D00121494201F0B8FB74
:104B0000E089218A80B289B2421A92B2884202D2E6
:104B10006389D21A92B2A388934208D2C21A92B27F
:104B200090422CD26089121A92B222821A00002A74
:104B300002D11DE0C91A89B28B42FBD92368E288F1
:104B40009C46514328006144FDF78EFB228A0125D3
:104B500092B2531C9BB29A420DD962899B189BB2A8
:104B6000A0692382002801D001F06AFB280070BDF3
:104B70000025238A9BB2A2899A42F1D2EDE7A0894F
:104B80009042D2D2CEE7C046F8B54746CE460400A2
:104B9000806980B50E001700002803D0012149422A
:104BA00001F066FBE289218A92B289B2551AADB250
:104BB0008A4202D26389ED1AADB2A388AB420AD20F
:104BC000D11A89B28A4252D26289891A89B21D00E9
:104BD0002182218A89B2002D4DD03A1CAF4244D89F
:104BE00095B28B4203D8C91A89B28B42FBD95B1AA2
:104BF0009FB2E3885943984623689C466144BD426E
:104C000024D94046784383B21A0030009946FDF714
:104C10002BFB43463000EA1B5A43484492B22168BA
:104C2000FDF722FB228A92B253199BB29A4218D9FD
:104C300062899B189BB2A0692382002801D001F0F1
:104C4000FFFA28000CBC90469946F8BD4246300059
:104C50006A43FDF709FB228A92B253199BB29A422A
:104C6000E6D8A2899A42E6D2E2E72A1CB8E7A289EE
:104C70008A42ACD2A8E7238AA2899BB29A42DAD2AE
:104C8000D6E7C04670B5040040690E00002803D086
:104C90000121494201F0ECFAE589238AADB29BB2C9
:104CA000EA1A92B29D4202D26389D21A92B2A388C2
:104CB000934226D028009D4203D3C01A80B283427B
:104CC000FBD92368E2889C46504331006044FDF7DD
:104CD000CBFA6B1C9BB29D420AD9628960699B1812
:104CE0009BB2E38100280AD001F0AAFA012070BD2E
:104CF000A2899A42F1D36069E3810028F4D10120AE
:104D0000F5E7207A0028D5D1F1E7C046F0B54F4647
:104D1000D64646460500C0B514000F00002A05D14E
:104D200020001CBC90469946A246F0BD4069002870
:104D300003D00121494201F09BFAEE892B7A288A9F
:104D4000B6B280B2002B11D1321AAB8892B2864231
:104D500002D26989521A92B29A1A111C92B2A242D4
:104D600000D9211CEA888CB2904609E0EA88AB8819
:104D700090469C4204D3E41A544306003F191C0099
:104D800030009E4203D3C01A80B29842FBD21B1A55
:104D90009BB29946434658432B689C4660444C4519
:104DA00015D8424639006243FDF75EFAA3199BB25B
:104DB0009E4202D8AA899A4202D26A899B189BB263
:104DC0006869EB810028ABD001F03AFAA8E74B46BE
:104DD000414659438BB21A0039009A46FDF744FA0E
:104DE0004B46E21A434639005A43514492B228686E
:104DF000FDF73AFADAE7C04610B50400406900282A
:104E000003D00121494201F033FAA069002803D000
:104E10000121494201F02CFA0023E3812382A38877
:104E200060695B009BB25A1E5B42A28163810028CD
:104E300001D001F005FAA069002801D001F000FAC4
:104E4000012010BD70B5040040690D00002803D09A
:104E50000121494201F00CFAA069002803D0012188
:104E6000494201F005FA60692572002801D001F07D
:104E7000E7F9A069002801D001F0E2F9012070BD36
:104E800010B5024800F0E4F810BDC04668170020D5
:104E9000013910B5002900D1A5E06C4B1A78121128
:104EA00014003034092A00DDA0E00470012900D18B
:104EB00099E00F221C78224014003034092A00DDCA
:104EC00097E04470022900D18DE05A781211140045
:104ED0003034092A00DD8FE08470032900D182E09C
:104EE0000F225C78224014003034092A00DD86E06D
:104EF000C470042977D09A78121114003034092A2A
:104F000000DD7FE0047105296DD00F229C782240DE
:104F100014003034092A00DD77E04471062962D09C
:104F2000DA78121114003034092A00DD70E084713F
:104F3000072958D00F22DC78224014003034092A87
:104F400069DCC47108294ED01A791211140030346A
:104F5000092A63DC0472092945D00F221C792240FA
:104F600014003034092A5CDC44720A293BD05A7997
:104F7000121114003034092A56DC84720B2932D005
:104F80000F225C79224014003034092A4FDCC472AD
:104F90000C2928D09A79121114003034092A49DCDE
:104FA00004730D291FD00F229C7922401400303445
:104FB000092A42DC44730E2915D0DA791211140043
:104FC0003034092A3CDC84730F290CD0DA790F23A2
:104FD00013401A003732092B01DC30331A00C27338
:104FE000102900D010210023435410BD3732140083
:104FF0005BE73732140064E7373214006CE737326E
:10500000140075E7373214007CE73732140084E768
:10501000373214008BE73732140092E7373214002E
:1050200098E7373214009FE737321400A5E737328C
:105030001400ACE737321400B2E737321400B9E796
:105040003732140084730F29C0D1CCE768170020D1
:1050500010B588B004000D2200216846FDF7FEF867
:105060000D22002104A8FDF7F9F84B236A4604A994
:10507000137068460D2201F0DBF8152108226944FF
:105080002000FDF7F1F808B010BDC046F0B5574656
:105090004546DE464E46E0B50D000B3583B00700B1
:1050A000162D00D89FE007239D4300D5C4E0A942F8
:1050B00000D9C1E000F096FAF823FF339D4200D8F2
:1050C00089E2680A00D1BBE0042800D964E13823F2
:1050D0009846A80980443930C100C94E7118083972
:1050E000CC68A14219D0032362689A431300521B73
:1050F0000F2A00DDAAE0002A00DB88E003239C469B
:1051000008E06246636893435A1B0F2A00DD9DE066
:10511000002A7CDAE468A142F3D132003469083213
:10512000944200D18BE10323616899438946491B6E
:105130000F2900DD70E172613261002900DB87E038
:10514000B04A4B46914500D932E1DB08FF3A99104D
:10515000FF3A8A40DB0071689B190A4399687260C4
:10516000E360A1609C601300CC600121821091403B
:1051700099426FD80B4205D1032290434900043075
:105180000B42FBD003239846C3009946B144CC465A
:1051900082466346DC68A44507D152E1002A00DB61
:1051A00061E1E468A44500D14BE142466368934362
:1051B0005A1B0F2AF2DD0120804661190543656004
:1051C000A068E5680836C560A8604046F160B16037
:1051D00010434860CE608E603800E25000F004FA60
:1051E0002000083021E0102926D8380000F0FAF914
:1051F000102518230220824EF3181A005C68083A22
:10520000944200D129E1032362689A431300E268C3
:10521000A168CA6091600122E318596838000A4306
:105220005A6000F0E1F92000083003B03CBC904621
:105230009946A246AB46F0BD0C2300203B60F4E744
:1052400080213F2340208900984646E7404664E796
:105250004B46E0E70323B46862689A439046AA424B
:1052600003D3531B0F2B00DD88E023004344664A21
:105270000193664B93469A4692681B68EB1801327D
:1052800000D161E1624A944663441B0B1B03009307
:105290000099380000F0AAF903008146013362D07A
:1052A000019B834200D9F9E053465B68009A9C4613
:1052B000534662445A60019B1100834200D14FE182
:1052C0005B469B68013300D166E14B46019A9B1A0D
:1052D00059185346596007234A46134000D11EE12E
:1052E000082189464B49D21A9144CB1A009A3800BA
:1052F0004A441105090D5B1A19009B4600F076F926
:10530000431C00D13CE14B46C01A012358441843CA
:1053100053465B685B441900534659604B46B36083
:105320005860B44213D043460F2B00D8E2E0434606
:10533000072260680C3B9343063A024005201A435B
:105340006260E218506090600F2B00D91CE1534658
:10535000DB6A994201D95346D96253461B6B994285
:1053600001D9534619630323B46862689A43531BF7
:10537000954200D9C1E00F2B00DCBEE001222900DC
:1053800013431143651961603800B5606B6000F02C
:105390002BF92000083048E7142873D9542800D985
:1053A000B2E06E239846280B80446F30C10094E62B
:1053B0005A0A042A6CD9142A00D9C8E011005C32B8
:1053C0005B31D20008235B429C46B218944463468A
:1053D0009A6803239846944500D1A3E04346516858
:1053E0009943894500D38DE092689445F6D1634690
:1053F000DA6873686146E260A1609460CC60B4E6EC
:1054000080080020FF010000800C0020D40D002047
:105410000F10000008100000012360191D43656093
:1054200070613061C26082601A004B460A4342607C
:105430003800E15000F0D8F820000830F5E6736835
:1054400093E608239B46073BDC449B46DA444346ED
:105450005246134200D09CE636E0DC680230A3429C
:1054600000D15AE6CFE60122E318596838000A4312
:105470005A60E368A268D3609A6000F0B5F8200033
:105480000830D2E65B23984680445C30C10024E6B5
:105490009A09110039323831D20093E7B44200D072
:1054A00061E753465B68009A9C465346624411008C
:1054B0005A6005E708235B429C46E1444B469B68E3
:1054C0000138994500D084E043460342F2D1736825
:1054D0008B4373604900994200D9BBE6002900D193
:1054E000B8E650460B4200D04EE6490004300B426D
:1054F000FBD049E601234A465360380000F074F8B7
:10550000002092E6944672E7AA235B00984211D8E5
:10551000DD3B9846E80B80447830C100DDE5802310
:105520005B01E3E68910023B8B40726813437360B2
:1055300062465FE72A4B98421CD87C239846A80C09
:1055400080447D30C100C8E510330093A0E6542AA2
:1055500026D84B461A0B11006F326E31D20031E75C
:105560001B0500D0ACE60120009BB2684344034316
:105570005360ECE6FE217E237F2089009846ACE54F
:10558000002301209B46C3E621003800083100F0CB
:105590007DFB53465968DAE65B464A469A609AE6CE
:1055A000AA2149008A4206D84B46DA0B110078320C
:1055B0007731D20006E70A498A4206D84B469A0C50
:1055C00011007D327C31D200FCE6FE227E21920069
:1055D000F8E673687EE72B00E80808330BE6C04660
:1055E000540500007047C0467047C046002370B5A0
:1055F000064C050008002360FCF7F0F8431C00D0BF
:1056000070BD2368002BFBD02B60F9E7681A0020DF
:1056100010B5830725D00378002B24D00300032185
:1056200002E01A78002A1AD001330B42F9D1196826
:105630000E4A0F4C8A188A43224206D10433196855
:105640000A4A8A188A432242F8D01A001B78002B93
:1056500003D0013211780029FBD1101A10BD181A9D
:10566000FCE70300E3E70020F8E7C046FFFEFEFE8C
:1056700080808080F8B506000D001400002802D05C
:10568000836B002B4ED0A369A3600C23E05E81B234
:105690000B073CD52369002B39D0FF22EFB2154010
:1056A00080229201114215D022686169D31A8B427F
:1056B0001BDA0133A1680139A160511C2160177008
:1056C00062699A421AD0A389DB0701D50A2D15D049
:1056D0002800F8BD0243616EA281144A0A40626646
:1056E00061692268D31A8B42E3DB2100300000F0AD
:1056F0003DF9002808D122680123DBE721003000B2
:1057000000F034F90028E3D001256D42E0E72100E4
:10571000300000F019F80028F6D10C23E05E236970
:1057200081B2BAE700F03AFAADE7C046FFDFFFFF0B
:1057300010B5044B0A001B6801001800FFF79AFF20
:1057400010BDC04650040020334B70B505001868EA
:105750000C00002802D0836B002B3CD00C23E25EAF
:1057600093B219070DD52169002915D0DA0721D583
:105770000023A360636900205B42A361002921D05C
:1057800070BDD9063FD55B0728D421690823134390
:10579000A3819BB20029E9D1A02280209200800041
:1057A0001A408242E2D02100280000F0C5FBA38904
:1057B0002169DBE700229B0700D46269A260002018
:1057C0000029DDD10C22A35E1A06D9D5402213434D
:1057D000A3810138D4E700F0E1F9BFE7216B00298C
:1057E0000AD023004033994204D0280000F04EFA3A
:1057F0000C23E25E0023236324239A4300232169C0
:1058000063602160C2E709232B60402301201A4313
:10581000A2814042B4E7C04650040020F0B5C6461D
:1058200000B50C23CA5E804693B20C00190740D421
:1058300080231B0113436268A381002A00DC70E00F
:10584000A66A002E31D042464146156800229BB21E
:105850000A60DA0400D469E0226D5B0706D563684C
:10586000D21A236B002B01D0E36BD21A0023E1691B
:105870004046B047431C3DD0A3893A4A134000221A
:10588000626022691BB2A3812260DB0447D44346D5
:10589000216B1D60002908D023004033994202D0BB
:1058A000404600F0F3F900232363002004BC904637
:1058B000F0BD2669002EF8D022682660951B0022D4
:1058C0009B0700D16269A260002D04DCEDE7361869
:1058D0002D1A002DE9DD2B003200E1694046676A90
:1058E000B8470028F3DC40220120A389404213433B
:1058F000A381DBE7434619681D29F4D81A4B01221E
:10590000CB409A43EFD1A389164E6260334022699F
:105910001BB2A3812260DB04B9D50029B7D1206571
:10592000B5E7E26B002A00DD8AE7BEE7002201232B
:10593000E1694046B0470200431C02D0A389A66A31
:105940008BE743461B68002BF8D01D2B01D0162B8C
:1059500003D1434600201D60A8E74021A3890B43E3
:10596000A381A3E7FFF7FFFF0100402070B504000B
:105970000D00002802D0836B002B09D00C22AB5EF7
:105980000020002B03D029002000FFF747FF70BD47
:1059900000F004F9F2E7C04610B5011E04D0054B33
:1059A0001868FFF7E3FF10BD034B0449186800F0C7
:1059B0006DFAF8E750040020B86500106D5900102A
:1059C0000020704710B5024900F060FA10BDC046D3
:1059D000AD600010F8B5DE4657464E464546344B9E
:1059E000E0B5C363B823002403229B00C4500433F2
:1059F0004568C2500833C218043BC2500600042355
:105A000028002C606C60AC60AB816C66EC812C6112
:105A10006C61AC61082200215C30FCF71FFC254B57
:105A2000254F9A462B62254BEF6299466B62244BB9
:105A3000ED61AB62B568984609232800AB81083B4D
:105A40002C606C60AC606C66EB812C616C61AC614D
:105A5000082200215C309B46FCF700FC53462B6279
:105A60004B466B624346EF62AB62ED61F568122311
:105A70002800AB81103BEB812C606C60AC606C66E5
:105A80002C616C61AC61082200215C30FCF7E6FB04
:105A900053462B624B466B624346AB625B46EF62FA
:105AA000ED61B3633CBC90469946A246AB46F8BD57
:105AB000C5590010C15F001055600010ED5F001067
:105AC000296000100020704770B568244A1E5443B6
:105AD0000E0021007431FFF7D9FA051E09D000230A
